{
  "contractName": "MyToken",
  "abi": [
    {
      "inputs": [],
      "stateMutability": "nonpayable",
      "type": "constructor"
    },
    {
      "anonymous": false,
      "inputs": [
        {
          "indexed": true,
          "internalType": "address",
          "name": "account",
          "type": "address"
        },
        {
          "indexed": true,
          "internalType": "address",
          "name": "operator",
          "type": "address"
        },
        {
          "indexed": false,
          "internalType": "bool",
          "name": "approved",
          "type": "bool"
        }
      ],
      "name": "ApprovalForAll",
      "type": "event"
    },
    {
      "anonymous": false,
      "inputs": [
        {
          "indexed": true,
          "internalType": "address",
          "name": "previousOwner",
          "type": "address"
        },
        {
          "indexed": true,
          "internalType": "address",
          "name": "newOwner",
          "type": "address"
        }
      ],
      "name": "OwnershipTransferred",
      "type": "event"
    },
    {
      "anonymous": false,
      "inputs": [
        {
          "indexed": true,
          "internalType": "address",
          "name": "operator",
          "type": "address"
        },
        {
          "indexed": true,
          "internalType": "address",
          "name": "from",
          "type": "address"
        },
        {
          "indexed": true,
          "internalType": "address",
          "name": "to",
          "type": "address"
        },
        {
          "indexed": false,
          "internalType": "uint256[]",
          "name": "ids",
          "type": "uint256[]"
        },
        {
          "indexed": false,
          "internalType": "uint256[]",
          "name": "values",
          "type": "uint256[]"
        }
      ],
      "name": "TransferBatch",
      "type": "event"
    },
    {
      "anonymous": false,
      "inputs": [
        {
          "indexed": true,
          "internalType": "address",
          "name": "operator",
          "type": "address"
        },
        {
          "indexed": true,
          "internalType": "address",
          "name": "from",
          "type": "address"
        },
        {
          "indexed": true,
          "internalType": "address",
          "name": "to",
          "type": "address"
        },
        {
          "indexed": false,
          "internalType": "uint256",
          "name": "id",
          "type": "uint256"
        },
        {
          "indexed": false,
          "internalType": "uint256",
          "name": "value",
          "type": "uint256"
        }
      ],
      "name": "TransferSingle",
      "type": "event"
    },
    {
      "anonymous": false,
      "inputs": [
        {
          "indexed": false,
          "internalType": "string",
          "name": "value",
          "type": "string"
        },
        {
          "indexed": true,
          "internalType": "uint256",
          "name": "id",
          "type": "uint256"
        }
      ],
      "name": "URI",
      "type": "event"
    },
    {
      "inputs": [
        {
          "internalType": "address",
          "name": "account",
          "type": "address"
        },
        {
          "internalType": "uint256",
          "name": "id",
          "type": "uint256"
        }
      ],
      "name": "balanceOf",
      "outputs": [
        {
          "internalType": "uint256",
          "name": "",
          "type": "uint256"
        }
      ],
      "stateMutability": "view",
      "type": "function"
    },
    {
      "inputs": [
        {
          "internalType": "address[]",
          "name": "accounts",
          "type": "address[]"
        },
        {
          "internalType": "uint256[]",
          "name": "ids",
          "type": "uint256[]"
        }
      ],
      "name": "balanceOfBatch",
      "outputs": [
        {
          "internalType": "uint256[]",
          "name": "",
          "type": "uint256[]"
        }
      ],
      "stateMutability": "view",
      "type": "function"
    },
    {
      "inputs": [
        {
          "internalType": "address",
          "name": "account",
          "type": "address"
        },
        {
          "internalType": "address",
          "name": "operator",
          "type": "address"
        }
      ],
      "name": "isApprovedForAll",
      "outputs": [
        {
          "internalType": "bool",
          "name": "",
          "type": "bool"
        }
      ],
      "stateMutability": "view",
      "type": "function"
    },
    {
      "inputs": [],
      "name": "owner",
      "outputs": [
        {
          "internalType": "address",
          "name": "",
          "type": "address"
        }
      ],
      "stateMutability": "view",
      "type": "function"
    },
    {
      "inputs": [],
      "name": "renounceOwnership",
      "outputs": [],
      "stateMutability": "nonpayable",
      "type": "function"
    },
    {
      "inputs": [
        {
          "internalType": "address",
          "name": "from",
          "type": "address"
        },
        {
          "internalType": "address",
          "name": "to",
          "type": "address"
        },
        {
          "internalType": "uint256[]",
          "name": "ids",
          "type": "uint256[]"
        },
        {
          "internalType": "uint256[]",
          "name": "amounts",
          "type": "uint256[]"
        },
        {
          "internalType": "bytes",
          "name": "data",
          "type": "bytes"
        }
      ],
      "name": "safeBatchTransferFrom",
      "outputs": [],
      "stateMutability": "nonpayable",
      "type": "function"
    },
    {
      "inputs": [
        {
          "internalType": "address",
          "name": "from",
          "type": "address"
        },
        {
          "internalType": "address",
          "name": "to",
          "type": "address"
        },
        {
          "internalType": "uint256",
          "name": "id",
          "type": "uint256"
        },
        {
          "internalType": "uint256",
          "name": "amount",
          "type": "uint256"
        },
        {
          "internalType": "bytes",
          "name": "data",
          "type": "bytes"
        }
      ],
      "name": "safeTransferFrom",
      "outputs": [],
      "stateMutability": "nonpayable",
      "type": "function"
    },
    {
      "inputs": [
        {
          "internalType": "address",
          "name": "operator",
          "type": "address"
        },
        {
          "internalType": "bool",
          "name": "approved",
          "type": "bool"
        }
      ],
      "name": "setApprovalForAll",
      "outputs": [],
      "stateMutability": "nonpayable",
      "type": "function"
    },
    {
      "inputs": [
        {
          "internalType": "bytes4",
          "name": "interfaceId",
          "type": "bytes4"
        }
      ],
      "name": "supportsInterface",
      "outputs": [
        {
          "internalType": "bool",
          "name": "",
          "type": "bool"
        }
      ],
      "stateMutability": "view",
      "type": "function"
    },
    {
      "inputs": [
        {
          "internalType": "address",
          "name": "newOwner",
          "type": "address"
        }
      ],
      "name": "transferOwnership",
      "outputs": [],
      "stateMutability": "nonpayable",
      "type": "function"
    },
    {
      "inputs": [
        {
          "internalType": "uint256",
          "name": "",
          "type": "uint256"
        }
      ],
      "name": "uri",
      "outputs": [
        {
          "internalType": "string",
          "name": "",
          "type": "string"
        }
      ],
      "stateMutability": "view",
      "type": "function"
    },
    {
      "inputs": [
        {
          "internalType": "uint256",
          "name": "amount",
          "type": "uint256"
        },
        {
          "internalType": "uint256",
          "name": "id",
          "type": "uint256"
        }
      ],
      "name": "mint",
      "outputs": [],
      "stateMutability": "nonpayable",
      "type": "function"
    }
  ],
  "bytecode": "0x608060405267016345785d8a00006004553480156200001d57600080fd5b5060405180608001604052806050815260200162003b0c6050913962000049816200009560201b60201c565b506200006a6200005e620000b160201b60201c565b620000b960201b60201c565b6200008f3360006001604051806020016040528060008152506200017f60201b60201c565b62000d7d565b8060029080519060200190620000ad92919062000632565b5050565b600033905090565b6000600360009054906101000a900473ffffffffffffffffffffffffffffffffffffffff16905081600360006101000a81548173ffffffffffffffffffffffffffffffffffffffff021916908373ffffffffffffffffffffffffffffffffffffffff1602179055508173ffffffffffffffffffffffffffffffffffffffff168173ffffffffffffffffffffffffffffffffffffffff167f8be0079c531659141344cd1fd0a4f28419497f9722a3daafe3b4186f6b6457e060405160405180910390a35050565b600073ffffffffffffffffffffffffffffffffffffffff168473ffffffffffffffffffffffffffffffffffffffff161415620001f2576040517f08c379a0000000000000000000000000000000000000000000000000000000008152600401620001e9906200090a565b60405180910390fd5b600062000204620000b160201b60201c565b90506200023d816000876200021f886200034460201b60201c565b62000230886200034460201b60201c565b876200040d60201b60201c565b8260008086815260200190815260200160002060008773ffffffffffffffffffffffffffffffffffffffff1673ffffffffffffffffffffffffffffffffffffffff16815260200190815260200160002060008282546200029e91906200099b565b925050819055508473ffffffffffffffffffffffffffffffffffffffff16600073ffffffffffffffffffffffffffffffffffffffff168273ffffffffffffffffffffffffffffffffffffffff167fc3d58168c5ae7397731d063d5bbf3d657854427343f4c083240f7aacaa2d0f6287876040516200031e9291906200092c565b60405180910390a46200033d816000878787876200041560201b60201c565b5050505050565b60606000600167ffffffffffffffff8111156200038a577f4e487b7100000000000000000000000000000000000000000000000000000000600052604160045260246000fd5b604051908082528060200260200182016040528015620003b95781602001602082028036833780820191505090505b5090508281600081518110620003f8577f4e487b7100000000000000000000000000000000000000000000000000000000600052603260045260246000fd5b60200260200101818152505080915050919050565b505050505050565b620004418473ffffffffffffffffffffffffffffffffffffffff166200061f60201b62000a7d1760201c565b1562000617578373ffffffffffffffffffffffffffffffffffffffff1663f23a6e6187878686866040518663ffffffff1660e01b81526004016200048a9594939291906200083e565b602060405180830381600087803b158015620004a557600080fd5b505af1925050508015620004d957506040513d601f19601f82011682018060405250810190620004d69190620006f9565b60015b6200058b57620004e862000b91565b806308c379a014156200054c57506200050062000cc1565b806200050d57506200054e565b806040517f08c379a0000000000000000000000000000000000000000000000000000000008152600401620005439190620008a2565b60405180910390fd5b505b6040517f08c379a00000000000000000000000000000000000000000000000000000000081526004016200058290620008c6565b60405180910390fd5b63f23a6e6160e01b7bffffffffffffffffffffffffffffffffffffffffffffffffffffffff1916817bffffffffffffffffffffffffffffffffffffffffffffffffffffffff19161462000615576040517f08c379a00000000000000000000000000000000000000000000000000000000081526004016200060c90620008e8565b60405180910390fd5b505b505050505050565b600080823b905060008111915050919050565b828054620006409062000a98565b90600052602060002090601f016020900481019282620006645760008555620006b0565b82601f106200067f57805160ff1916838001178555620006b0565b82800160010185558215620006b0579182015b82811115620006af57825182559160200191906001019062000692565b5b509050620006bf9190620006c3565b5090565b5b80821115620006de576000816000905550600101620006c4565b5090565b600081519050620006f38162000d63565b92915050565b6000602082840312156200070c57600080fd5b60006200071c84828501620006e2565b91505092915050565b6200073081620009f8565b82525050565b6000620007438262000963565b6200074f818562000979565b93506200076181856020860162000a62565b6200076c8162000bb6565b840191505092915050565b600062000784826200096e565b6200079081856200098a565b9350620007a281856020860162000a62565b620007ad8162000bb6565b840191505092915050565b6000620007c76034836200098a565b9150620007d48262000bd4565b604082019050919050565b6000620007ee6028836200098a565b9150620007fb8262000c23565b604082019050919050565b6000620008156021836200098a565b9150620008228262000c72565b604082019050919050565b620008388162000a58565b82525050565b600060a08201905062000855600083018862000725565b62000864602083018762000725565b6200087360408301866200082d565b6200088260608301856200082d565b818103608083015262000896818462000736565b90509695505050505050565b60006020820190508181036000830152620008be818462000777565b905092915050565b60006020820190508181036000830152620008e181620007b8565b9050919050565b600060208201905081810360008301526200090381620007df565b9050919050565b60006020820190508181036000830152620009258162000806565b9050919050565b60006040820190506200094360008301856200082d565b6200095260208301846200082d565b9392505050565b6000604051905090565b600081519050919050565b600081519050919050565b600082825260208201905092915050565b600082825260208201905092915050565b6000620009a88262000a58565b9150620009b58362000a58565b9250827fffffffffffffffffffffffffffffffffffffffffffffffffffffffffffffffff03821115620009ed57620009ec62000b04565b5b828201905092915050565b600062000a058262000a38565b9050919050565b60007fffffffff0000000000000000000000000000000000000000000000000000000082169050919050565b600073ffffffffffffffffffffffffffffffffffffffff82169050919050565b6000819050919050565b60005b8381101562000a8257808201518184015260208101905062000a65565b8381111562000a92576000848401525b50505050565b6000600282049050600182168062000ab157607f821691505b6020821081141562000ac85762000ac762000b33565b5b50919050565b62000ad98262000bb6565b810181811067ffffffffffffffff8211171562000afb5762000afa62000b62565b5b80604052505050565b7f4e487b7100000000000000000000000000000000000000000000000000000000600052601160045260246000fd5b7f4e487b7100000000000000000000000000000000000000000000000000000000600052602260045260246000fd5b7f4e487b7100000000000000000000000000000000000000000000000000000000600052604160045260246000fd5b600060033d111562000bb35760046000803e62000bb060005162000bc7565b90505b90565b6000601f19601f8301169050919050565b60008160e01c9050919050565b7f455243313135353a207472616e7366657220746f206e6f6e204552433131353560008201527f526563656976657220696d706c656d656e746572000000000000000000000000602082015250565b7f455243313135353a204552433131353552656365697665722072656a6563746560008201527f6420746f6b656e73000000000000000000000000000000000000000000000000602082015250565b7f455243313135353a206d696e7420746f20746865207a65726f2061646472657360008201527f7300000000000000000000000000000000000000000000000000000000000000602082015250565b600060443d101562000cd35762000d60565b62000cdd62000959565b60043d036004823e80513d602482011167ffffffffffffffff8211171562000d0757505062000d60565b808201805167ffffffffffffffff81111562000d27575050505062000d60565b80602083010160043d03850181111562000d4657505050505062000d60565b62000d578260200185018662000ace565b82955050505050505b90565b62000d6e8162000a0c565b811462000d7a57600080fd5b50565b612d7f8062000d8d6000396000f3fe608060405234801561001057600080fd5b50600436106100b35760003560e01c8063715018a611610071578063715018a6146101b05780638da5cb5b146101ba578063a22cb465146101d8578063e985e9c5146101f4578063f242432a14610224578063f2fde38b14610240576100b3565b8062fdd58e146100b857806301ffc9a7146100e85780630e89341c146101185780631b2ef1ca146101485780632eb2c2d6146101645780634e1273f414610180575b600080fd5b6100d260048036038101906100cd9190611d35565b61025c565b6040516100df9190612492565b60405180910390f35b61010260048036038101906100fd9190611ddd565b610325565b60405161010f91906122b5565b60405180910390f35b610132600480360381019061012d9190611e2f565b610407565b60405161013f91906122d0565b60405180910390f35b610162600480360381019061015d9190611e58565b61049b565b005b61017e60048036038101906101799190611bab565b610536565b005b61019a60048036038101906101959190611d71565b6105d7565b6040516101a7919061225c565b60405180910390f35b6101b8610788565b005b6101c2610810565b6040516101cf919061217f565b60405180910390f35b6101f260048036038101906101ed9190611cf9565b61083a565b005b61020e60048036038101906102099190611b6f565b610850565b60405161021b91906122b5565b60405180910390f35b61023e60048036038101906102399190611c6a565b6108e4565b005b61025a60048036038101906102559190611b46565b610985565b005b60008073ffffffffffffffffffffffffffffffffffffffff168373ffffffffffffffffffffffffffffffffffffffff1614156102cd576040517f08c379a00000000000000000000000000000000000000000000000000000000081526004016102c490612332565b60405180910390fd5b60008083815260200190815260200160002060008473ffffffffffffffffffffffffffffffffffffffff1673ffffffffffffffffffffffffffffffffffffffff16815260200190815260200160002054905092915050565b60007fd9b67a26000000000000000000000000000000000000000000000000000000007bffffffffffffffffffffffffffffffffffffffffffffffffffffffff1916827bffffffffffffffffffffffffffffffffffffffffffffffffffffffff191614806103f057507f0e89341c000000000000000000000000000000000000000000000000000000007bffffffffffffffffffffffffffffffffffffffffffffffffffffffff1916827bffffffffffffffffffffffffffffffffffffffffffffffffffffffff1916145b8061040057506103ff82610a90565b5b9050919050565b60606002805461041690612701565b80601f016020809104026020016040519081016040528092919081815260200182805461044290612701565b801561048f5780601f106104645761010080835404028352916020019161048f565b820191906000526020600020905b81548152906001019060200180831161047257829003601f168201915b50505050509050919050565b6104a3610afa565b73ffffffffffffffffffffffffffffffffffffffff166104c1610810565b73ffffffffffffffffffffffffffffffffffffffff1614610517576040517f08c379a000000000000000000000000000000000000000000000000000000000815260040161050e906123f2565b60405180910390fd5b61053233828460405180602001604052806000815250610b02565b5050565b61053e610afa565b73ffffffffffffffffffffffffffffffffffffffff168573ffffffffffffffffffffffffffffffffffffffff16148061058457506105838561057e610afa565b610850565b5b6105c3576040517f08c379a00000000000000000000000000000000000000000000000000000000081526004016105ba906123b2565b60405180910390fd5b6105d08585858585610c98565b5050505050565b6060815183511461061d576040517f08c379a000000000000000000000000000000000000000000000000000000000815260040161061490612432565b60405180910390fd5b6000835167ffffffffffffffff811115610660577f4e487b7100000000000000000000000000000000000000000000000000000000600052604160045260246000fd5b60405190808252806020026020018201604052801561068e5781602001602082028036833780820191505090505b50905060005b845181101561077d576107278582815181106106d9577f4e487b7100000000000000000000000000000000000000000000000000000000600052603260045260246000fd5b602002602001015185838151811061071a577f4e487b7100000000000000000000000000000000000000000000000000000000600052603260045260246000fd5b602002602001015161025c565b828281518110610760577f4e487b7100000000000000000000000000000000000000000000000000000000600052603260045260246000fd5b6020026020010181815250508061077690612764565b9050610694565b508091505092915050565b610790610afa565b73ffffffffffffffffffffffffffffffffffffffff166107ae610810565b73ffffffffffffffffffffffffffffffffffffffff1614610804576040517f08c379a00000000000000000000000000000000000000000000000000000000081526004016107fb906123f2565b60405180910390fd5b61080e6000610ff8565b565b6000600360009054906101000a900473ffffffffffffffffffffffffffffffffffffffff16905090565b61084c610845610afa565b83836110be565b5050565b6000600160008473ffffffffffffffffffffffffffffffffffffffff1673ffffffffffffffffffffffffffffffffffffffff16815260200190815260200160002060008373ffffffffffffffffffffffffffffffffffffffff1673ffffffffffffffffffffffffffffffffffffffff16815260200190815260200160002060009054906101000a900460ff16905092915050565b6108ec610afa565b73ffffffffffffffffffffffffffffffffffffffff168573ffffffffffffffffffffffffffffffffffffffff16148061093257506109318561092c610afa565b610850565b5b610971576040517f08c379a000000000000000000000000000000000000000000000000000000000815260040161096890612372565b60405180910390fd5b61097e858585858561122b565b5050505050565b61098d610afa565b73ffffffffffffffffffffffffffffffffffffffff166109ab610810565b73ffffffffffffffffffffffffffffffffffffffff1614610a01576040517f08c379a00000000000000000000000000000000000000000000000000000000081526004016109f8906123f2565b60405180910390fd5b600073ffffffffffffffffffffffffffffffffffffffff168173ffffffffffffffffffffffffffffffffffffffff161415610a71576040517f08c379a0000000000000000000000000000000000000000000000000000000008152600401610a6890612352565b60405180910390fd5b610a7a81610ff8565b50565b600080823b905060008111915050919050565b60007f01ffc9a7000000000000000000000000000000000000000000000000000000007bffffffffffffffffffffffffffffffffffffffffffffffffffffffff1916827bffffffffffffffffffffffffffffffffffffffffffffffffffffffff1916149050919050565b600033905090565b600073ffffffffffffffffffffffffffffffffffffffff168473ffffffffffffffffffffffffffffffffffffffff161415610b72576040517f08c379a0000000000000000000000000000000000000000000000000000000008152600401610b6990612472565b60405180910390fd5b6000610b7c610afa565b9050610b9d81600087610b8e886114ad565b610b97886114ad565b87611573565b8260008086815260200190815260200160002060008773ffffffffffffffffffffffffffffffffffffffff1673ffffffffffffffffffffffffffffffffffffffff1681526020019081526020016000206000828254610bfc91906125f5565b925050819055508473ffffffffffffffffffffffffffffffffffffffff16600073ffffffffffffffffffffffffffffffffffffffff168273ffffffffffffffffffffffffffffffffffffffff167fc3d58168c5ae7397731d063d5bbf3d657854427343f4c083240f7aacaa2d0f628787604051610c7a9291906124ad565b60405180910390a4610c918160008787878761157b565b5050505050565b8151835114610cdc576040517f08c379a0000000000000000000000000000000000000000000000000000000008152600401610cd390612452565b60405180910390fd5b600073ffffffffffffffffffffffffffffffffffffffff168473ffffffffffffffffffffffffffffffffffffffff161415610d4c576040517f08c379a0000000000000000000000000000000000000000000000000000000008152600401610d4390612392565b60405180910390fd5b6000610d56610afa565b9050610d66818787878787611573565b60005b8451811015610f63576000858281518110610dad577f4e487b7100000000000000000000000000000000000000000000000000000000600052603260045260246000fd5b602002602001015190506000858381518110610df2577f4e487b7100000000000000000000000000000000000000000000000000000000600052603260045260246000fd5b60200260200101519050600080600084815260200190815260200160002060008b73ffffffffffffffffffffffffffffffffffffffff1673ffffffffffffffffffffffffffffffffffffffff16815260200190815260200160002054905081811015610e93576040517f08c379a0000000000000000000000000000000000000000000000000000000008152600401610e8a906123d2565b60405180910390fd5b81810360008085815260200190815260200160002060008c73ffffffffffffffffffffffffffffffffffffffff1673ffffffffffffffffffffffffffffffffffffffff168152602001908152602001600020819055508160008085815260200190815260200160002060008b73ffffffffffffffffffffffffffffffffffffffff1673ffffffffffffffffffffffffffffffffffffffff1681526020019081526020016000206000828254610f4891906125f5565b9250508190555050505080610f5c90612764565b9050610d69565b508473ffffffffffffffffffffffffffffffffffffffff168673ffffffffffffffffffffffffffffffffffffffff168273ffffffffffffffffffffffffffffffffffffffff167f4a39dc06d4c0dbc64b70af90fd698a233a518aa5d07e595d983b8c0526c8f7fb8787604051610fda92919061227e565b60405180910390a4610ff0818787878787611762565b505050505050565b6000600360009054906101000a900473ffffffffffffffffffffffffffffffffffffffff16905081600360006101000a81548173ffffffffffffffffffffffffffffffffffffffff021916908373ffffffffffffffffffffffffffffffffffffffff1602179055508173ffffffffffffffffffffffffffffffffffffffff168173ffffffffffffffffffffffffffffffffffffffff167f8be0079c531659141344cd1fd0a4f28419497f9722a3daafe3b4186f6b6457e060405160405180910390a35050565b8173ffffffffffffffffffffffffffffffffffffffff168373ffffffffffffffffffffffffffffffffffffffff16141561112d576040517f08c379a000000000000000000000000000000000000000000000000000000000815260040161112490612412565b60405180910390fd5b80600160008573ffffffffffffffffffffffffffffffffffffffff1673ffffffffffffffffffffffffffffffffffffffff16815260200190815260200160002060008473ffffffffffffffffffffffffffffffffffffffff1673ffffffffffffffffffffffffffffffffffffffff16815260200190815260200160002060006101000a81548160ff0219169083151502179055508173ffffffffffffffffffffffffffffffffffffffff168373ffffffffffffffffffffffffffffffffffffffff167f17307eab39ab6107e8899845ad3d59bd9653f200f220920489ca2b5937696c318360405161121e91906122b5565b60405180910390a3505050565b600073ffffffffffffffffffffffffffffffffffffffff168473ffffffffffffffffffffffffffffffffffffffff16141561129b576040517f08c379a000000000000000000000000000000000000000000000000000000000815260040161129290612392565b60405180910390fd5b60006112a5610afa565b90506112c58187876112b6886114ad565b6112bf886114ad565b87611573565b600080600086815260200190815260200160002060008873ffffffffffffffffffffffffffffffffffffffff1673ffffffffffffffffffffffffffffffffffffffff1681526020019081526020016000205490508381101561135c576040517f08c379a0000000000000000000000000000000000000000000000000000000008152600401611353906123d2565b60405180910390fd5b83810360008087815260200190815260200160002060008973ffffffffffffffffffffffffffffffffffffffff1673ffffffffffffffffffffffffffffffffffffffff168152602001908152602001600020819055508360008087815260200190815260200160002060008873ffffffffffffffffffffffffffffffffffffffff1673ffffffffffffffffffffffffffffffffffffffff168152602001908152602001600020600082825461141191906125f5565b925050819055508573ffffffffffffffffffffffffffffffffffffffff168773ffffffffffffffffffffffffffffffffffffffff168373ffffffffffffffffffffffffffffffffffffffff167fc3d58168c5ae7397731d063d5bbf3d657854427343f4c083240f7aacaa2d0f62888860405161148e9291906124ad565b60405180910390a46114a482888888888861157b565b50505050505050565b60606000600167ffffffffffffffff8111156114f2577f4e487b7100000000000000000000000000000000000000000000000000000000600052604160045260246000fd5b6040519080825280602002602001820160405280156115205781602001602082028036833780820191505090505b509050828160008151811061155e577f4e487b7100000000000000000000000000000000000000000000000000000000600052603260045260246000fd5b60200260200101818152505080915050919050565b505050505050565b61159a8473ffffffffffffffffffffffffffffffffffffffff16610a7d565b1561175a578373ffffffffffffffffffffffffffffffffffffffff1663f23a6e6187878686866040518663ffffffff1660e01b81526004016115e0959493929190612202565b602060405180830381600087803b1580156115fa57600080fd5b505af192505050801561162b57506040513d601f19601f820116820180604052508101906116289190611e06565b60015b6116d15761163761283a565b806308c379a01415611694575061164c612c57565b806116575750611696565b806040517f08c379a000000000000000000000000000000000000000000000000000000000815260040161168b91906122d0565b60405180910390fd5b505b6040517f08c379a00000000000000000000000000000000000000000000000000000000081526004016116c8906122f2565b60405180910390fd5b63f23a6e6160e01b7bffffffffffffffffffffffffffffffffffffffffffffffffffffffff1916817bffffffffffffffffffffffffffffffffffffffffffffffffffffffff191614611758576040517f08c379a000000000000000000000000000000000000000000000000000000000815260040161174f90612312565b60405180910390fd5b505b505050505050565b6117818473ffffffffffffffffffffffffffffffffffffffff16610a7d565b15611941578373ffffffffffffffffffffffffffffffffffffffff1663bc197c8187878686866040518663ffffffff1660e01b81526004016117c795949392919061219a565b602060405180830381600087803b1580156117e157600080fd5b505af192505050801561181257506040513d601f19601f8201168201806040525081019061180f9190611e06565b60015b6118b85761181e61283a565b806308c379a0141561187b5750611833612c57565b8061183e575061187d565b806040517f08c379a000000000000000000000000000000000000000000000000000000000815260040161187291906122d0565b60405180910390fd5b505b6040517f08c379a00000000000000000000000000000000000000000000000000000000081526004016118af906122f2565b60405180910390fd5b63bc197c8160e01b7bffffffffffffffffffffffffffffffffffffffffffffffffffffffff1916817bffffffffffffffffffffffffffffffffffffffffffffffffffffffff19161461193f576040517f08c379a000000000000000000000000000000000000000000000000000000000815260040161193690612312565b60405180910390fd5b505b505050505050565b600061195c611957846124fb565b6124d6565b9050808382526020820190508285602086028201111561197b57600080fd5b60005b858110156119ab57816119918882611a5f565b84526020840193506020830192505060018101905061197e565b5050509392505050565b60006119c86119c384612527565b6124d6565b905080838252602082019050828560208602820111156119e757600080fd5b60005b85811015611a1757816119fd8882611b31565b8452602084019350602083019250506001810190506119ea565b5050509392505050565b6000611a34611a2f84612553565b6124d6565b905082815260208101848484011115611a4c57600080fd5b611a578482856126bf565b509392505050565b600081359050611a6e81612ced565b92915050565b600082601f830112611a8557600080fd5b8135611a95848260208601611949565b91505092915050565b600082601f830112611aaf57600080fd5b8135611abf8482602086016119b5565b91505092915050565b600081359050611ad781612d04565b92915050565b600081359050611aec81612d1b565b92915050565b600081519050611b0181612d1b565b92915050565b600082601f830112611b1857600080fd5b8135611b28848260208601611a21565b91505092915050565b600081359050611b4081612d32565b92915050565b600060208284031215611b5857600080fd5b6000611b6684828501611a5f565b91505092915050565b60008060408385031215611b8257600080fd5b6000611b9085828601611a5f565b9250506020611ba185828601611a5f565b9150509250929050565b600080600080600060a08688031215611bc357600080fd5b6000611bd188828901611a5f565b9550506020611be288828901611a5f565b945050604086013567ffffffffffffffff811115611bff57600080fd5b611c0b88828901611a9e565b935050606086013567ffffffffffffffff811115611c2857600080fd5b611c3488828901611a9e565b925050608086013567ffffffffffffffff811115611c5157600080fd5b611c5d88828901611b07565b9150509295509295909350565b600080600080600060a08688031215611c8257600080fd5b6000611c9088828901611a5f565b9550506020611ca188828901611a5f565b9450506040611cb288828901611b31565b9350506060611cc388828901611b31565b925050608086013567ffffffffffffffff811115611ce057600080fd5b611cec88828901611b07565b9150509295509295909350565b60008060408385031215611d0c57600080fd5b6000611d1a85828601611a5f565b9250506020611d2b85828601611ac8565b9150509250929050565b60008060408385031215611d4857600080fd5b6000611d5685828601611a5f565b9250506020611d6785828601611b31565b9150509250929050565b60008060408385031215611d8457600080fd5b600083013567ffffffffffffffff811115611d9e57600080fd5b611daa85828601611a74565b925050602083013567ffffffffffffffff811115611dc757600080fd5b611dd385828601611a9e565b9150509250929050565b600060208284031215611def57600080fd5b6000611dfd84828501611add565b91505092915050565b600060208284031215611e1857600080fd5b6000611e2684828501611af2565b91505092915050565b600060208284031215611e4157600080fd5b6000611e4f84828501611b31565b91505092915050565b60008060408385031215611e6b57600080fd5b6000611e7985828601611b31565b9250506020611e8a85828601611b31565b9150509250929050565b6000611ea08383612161565b60208301905092915050565b611eb58161264b565b82525050565b6000611ec682612594565b611ed081856125c2565b9350611edb83612584565b8060005b83811015611f0c578151611ef38882611e94565b9750611efe836125b5565b925050600181019050611edf565b5085935050505092915050565b611f228161265d565b82525050565b6000611f338261259f565b611f3d81856125d3565b9350611f4d8185602086016126ce565b611f568161285c565b840191505092915050565b6000611f6c826125aa565b611f7681856125e4565b9350611f868185602086016126ce565b611f8f8161285c565b840191505092915050565b6000611fa76034836125e4565b9150611fb28261287a565b604082019050919050565b6000611fca6028836125e4565b9150611fd5826128c9565b604082019050919050565b6000611fed602b836125e4565b9150611ff882612918565b604082019050919050565b60006120106026836125e4565b915061201b82612967565b604082019050919050565b60006120336029836125e4565b915061203e826129b6565b604082019050919050565b60006120566025836125e4565b915061206182612a05565b604082019050919050565b60006120796032836125e4565b915061208482612a54565b604082019050919050565b600061209c602a836125e4565b91506120a782612aa3565b604082019050919050565b60006120bf6020836125e4565b91506120ca82612af2565b602082019050919050565b60006120e26029836125e4565b91506120ed82612b1b565b604082019050919050565b60006121056029836125e4565b915061211082612b6a565b604082019050919050565b60006121286028836125e4565b915061213382612bb9565b604082019050919050565b600061214b6021836125e4565b915061215682612c08565b604082019050919050565b61216a816126b5565b82525050565b612179816126b5565b82525050565b60006020820190506121946000830184611eac565b92915050565b600060a0820190506121af6000830188611eac565b6121bc6020830187611eac565b81810360408301526121ce8186611ebb565b905081810360608301526121e28185611ebb565b905081810360808301526121f68184611f28565b90509695505050505050565b600060a0820190506122176000830188611eac565b6122246020830187611eac565b6122316040830186612170565b61223e6060830185612170565b81810360808301526122508184611f28565b90509695505050505050565b600060208201905081810360008301526122768184611ebb565b905092915050565b600060408201905081810360008301526122988185611ebb565b905081810360208301526122ac8184611ebb565b90509392505050565b60006020820190506122ca6000830184611f19565b92915050565b600060208201905081810360008301526122ea8184611f61565b905092915050565b6000602082019050818103600083015261230b81611f9a565b9050919050565b6000602082019050818103600083015261232b81611fbd565b9050919050565b6000602082019050818103600083015261234b81611fe0565b9050919050565b6000602082019050818103600083015261236b81612003565b9050919050565b6000602082019050818103600083015261238b81612026565b9050919050565b600060208201905081810360008301526123ab81612049565b9050919050565b600060208201905081810360008301526123cb8161206c565b9050919050565b600060208201905081810360008301526123eb8161208f565b9050919050565b6000602082019050818103600083015261240b816120b2565b9050919050565b6000602082019050818103600083015261242b816120d5565b9050919050565b6000602082019050818103600083015261244b816120f8565b9050919050565b6000602082019050818103600083015261246b8161211b565b9050919050565b6000602082019050818103600083015261248b8161213e565b9050919050565b60006020820190506124a76000830184612170565b92915050565b60006040820190506124c26000830185612170565b6124cf6020830184612170565b9392505050565b60006124e06124f1565b90506124ec8282612733565b919050565b6000604051905090565b600067ffffffffffffffff8211156125165761251561280b565b5b602082029050602081019050919050565b600067ffffffffffffffff8211156125425761254161280b565b5b602082029050602081019050919050565b600067ffffffffffffffff82111561256e5761256d61280b565b5b6125778261285c565b9050602081019050919050565b6000819050602082019050919050565b600081519050919050565b600081519050919050565b600081519050919050565b6000602082019050919050565b600082825260208201905092915050565b600082825260208201905092915050565b600082825260208201905092915050565b6000612600826126b5565b915061260b836126b5565b9250827fffffffffffffffffffffffffffffffffffffffffffffffffffffffffffffffff038211156126405761263f6127ad565b5b828201905092915050565b600061265682612695565b9050919050565b60008115159050919050565b60007fffffffff0000000000000000000000000000000000000000000000000000000082169050919050565b600073ffffffffffffffffffffffffffffffffffffffff82169050919050565b6000819050919050565b82818337600083830152505050565b60005b838110156126ec5780820151818401526020810190506126d1565b838111156126fb576000848401525b50505050565b6000600282049050600182168061271957607f821691505b6020821081141561272d5761272c6127dc565b5b50919050565b61273c8261285c565b810181811067ffffffffffffffff8211171561275b5761275a61280b565b5b80604052505050565b600061276f826126b5565b91507fffffffffffffffffffffffffffffffffffffffffffffffffffffffffffffffff8214156127a2576127a16127ad565b5b600182019050919050565b7f4e487b7100000000000000000000000000000000000000000000000000000000600052601160045260246000fd5b7f4e487b7100000000000000000000000000000000000000000000000000000000600052602260045260246000fd5b7f4e487b7100000000000000000000000000000000000000000000000000000000600052604160045260246000fd5b600060033d11156128595760046000803e61285660005161286d565b90505b90565b6000601f19601f8301169050919050565b60008160e01c9050919050565b7f455243313135353a207472616e7366657220746f206e6f6e204552433131353560008201527f526563656976657220696d706c656d656e746572000000000000000000000000602082015250565b7f455243313135353a204552433131353552656365697665722072656a6563746560008201527f6420746f6b656e73000000000000000000000000000000000000000000000000602082015250565b7f455243313135353a2062616c616e636520717565727920666f7220746865207a60008201527f65726f2061646472657373000000000000000000000000000000000000000000602082015250565b7f4f776e61626c653a206e6577206f776e657220697320746865207a65726f206160008201527f6464726573730000000000000000000000000000000000000000000000000000602082015250565b7f455243313135353a2063616c6c6572206973206e6f74206f776e6572206e6f7260008201527f20617070726f7665640000000000000000000000000000000000000000000000602082015250565b7f455243313135353a207472616e7366657220746f20746865207a65726f20616460008201527f6472657373000000000000000000000000000000000000000000000000000000602082015250565b7f455243313135353a207472616e736665722063616c6c6572206973206e6f742060008201527f6f776e6572206e6f7220617070726f7665640000000000000000000000000000602082015250565b7f455243313135353a20696e73756666696369656e742062616c616e636520666f60008201527f72207472616e7366657200000000000000000000000000000000000000000000602082015250565b7f4f776e61626c653a2063616c6c6572206973206e6f7420746865206f776e6572600082015250565b7f455243313135353a2073657474696e6720617070726f76616c2073746174757360008201527f20666f722073656c660000000000000000000000000000000000000000000000602082015250565b7f455243313135353a206163636f756e747320616e6420696473206c656e67746860008201527f206d69736d617463680000000000000000000000000000000000000000000000602082015250565b7f455243313135353a2069647320616e6420616d6f756e7473206c656e6774682060008201527f6d69736d61746368000000000000000000000000000000000000000000000000602082015250565b7f455243313135353a206d696e7420746f20746865207a65726f2061646472657360008201527f7300000000000000000000000000000000000000000000000000000000000000602082015250565b600060443d1015612c6757612cea565b612c6f6124f1565b60043d036004823e80513d602482011167ffffffffffffffff82111715612c97575050612cea565b808201805167ffffffffffffffff811115612cb55750505050612cea565b80602083010160043d038501811115612cd2575050505050612cea565b612ce182602001850186612733565b82955050505050505b90565b612cf68161264b565b8114612d0157600080fd5b50565b612d0d8161265d565b8114612d1857600080fd5b50565b612d2481612669565b8114612d2f57600080fd5b50565b612d3b816126b5565b8114612d4657600080fd5b5056fea2646970667358221220b0ecbf5171f6cbe3e8835d3f84d45a07b5a87a2bb8cf264dcc1ef6732d60f50364736f6c6343000802003368747470733a2f2f676174657761792e70696e6174612e636c6f75642f697066732f516d51795765724a5833716561454e554e5250683641534435727a61584d4b51694c727262656251524153744457",
  "immutableReferences": {},
  "source": "// SPDX-License-Identifier: MIT\npragma solidity ^0.8.2;\n\nimport \"@openzeppelin/contracts/token/ERC1155/ERC1155.sol\";\nimport \"@openzeppelin/contracts/access/Ownable.sol\";\n\ncontract MyToken is ERC1155, Ownable {\n    uint price = 0.1 ether;\n    uint constant FAN = 0;\n\n    constructor() ERC1155(\"https://gateway.pinata.cloud/ipfs/QmQyWerJX3qeaENUNRPh6ASD5rzaXMKQiLrrbebQRAStDW\") {\n        _mint(msg.sender, FAN, 1, \"\");\n    }\n\n    function mint(uint256 amount, uint256 id) public onlyOwner {\n        _mint(msg.sender, id, amount, \"\");\n    }\n\n    // modifier verifyAmount(uint amount) {\n    //     require (msg.value >= amount * price);\n    //     _;\n    // }\n\n    // function setURI(string memory newuri) public onlyOwner {\n    //     _setURI(newuri);\n    // }\n\n    // function setPrice(uint _price) public onlyOwner {\n    //     price = _price;\n    // }\n\n    // function mint(uint256 id, uint256 amount)\n    //     public\n    //     payable verifyAmount(amount)\n    // {\n    //     _mint(msg.sender, id, amount, \"\");\n    // }\n\n    // function mintBatch(address to, uint256[] memory ids, uint256[] memory amounts, bytes memory data)\n    //     public\n    //     onlyOwner\n    // {\n    //     _mintBatch(to, ids, amounts, data);\n    // }\n\n    // function withdraw() external onlyOwner {\n    //     require(address(this).balance > 0, \"Balance is 0\");\n    //     (bool sent, bytes memory data) = owner().call{value: address(this).balance}(\"\");\n    //     require(sent, \"Failed to send Ether\");\n    // }\n\n    // function hello() public pure returns(string memory) {\n    //     return \"hello world\";\n    // }\n}\n\n// Mumbai Polygon address: 0xaeCc8F00CB9f370e1D0BA8f4D8417F31c554A692\n",
  "sourcePath": "/Users/jsabio/dev/github/NFTHackST/contracts/ethereum/MyToken.sol",
  "compiler": {
    "name": "solc",
    "version": "0.8.2+commit.661d1103.Emscripten.clang"
  },
  "schemaVersion": "3.4.3",
  "updatedAt": "2022-01-16T02:42:55.753Z",
  "devdoc": {
    "kind": "dev",
    "methods": {
      "balanceOf(address,uint256)": {
        "details": "See {IERC1155-balanceOf}. Requirements: - `account` cannot be the zero address."
      },
      "balanceOfBatch(address[],uint256[])": {
        "details": "See {IERC1155-balanceOfBatch}. Requirements: - `accounts` and `ids` must have the same length."
      },
      "isApprovedForAll(address,address)": {
        "details": "See {IERC1155-isApprovedForAll}."
      },
      "owner()": {
        "details": "Returns the address of the current owner."
      },
      "renounceOwnership()": {
        "details": "Leaves the contract without owner. It will not be possible to call `onlyOwner` functions anymore. Can only be called by the current owner. NOTE: Renouncing ownership will leave the contract without an owner, thereby removing any functionality that is only available to the owner."
      },
      "safeBatchTransferFrom(address,address,uint256[],uint256[],bytes)": {
        "details": "See {IERC1155-safeBatchTransferFrom}."
      },
      "safeTransferFrom(address,address,uint256,uint256,bytes)": {
        "details": "See {IERC1155-safeTransferFrom}."
      },
      "setApprovalForAll(address,bool)": {
        "details": "See {IERC1155-setApprovalForAll}."
      },
      "supportsInterface(bytes4)": {
        "details": "See {IERC165-supportsInterface}."
      },
      "transferOwnership(address)": {
        "details": "Transfers ownership of the contract to a new account (`newOwner`). Can only be called by the current owner."
      },
      "uri(uint256)": {
        "details": "See {IERC1155MetadataURI-uri}. This implementation returns the same URI for *all* token types. It relies on the token type ID substitution mechanism https://eips.ethereum.org/EIPS/eip-1155#metadata[defined in the EIP]. Clients calling this function must replace the `\\{id\\}` substring with the actual token type ID."
      }
    },
    "version": 1
  },
  "userdoc": {
    "kind": "user",
    "methods": {},
    "version": 1
  },
  "db": {
    "callBytecode": {
      "id": "0x5411ad0a5098608061b935c780b931ec3f15c6ec8068cf182be666b4ac653c5a"
    },
    "createBytecode": {
      "id": "0x044d7fe40c6a54575dc30251548291bea81f0237804e0b212a3e42a5c5209ea2"
    },
    "contract": {
      "id": "0xc74b982bf1b39441fe1fb882e698925b2a13c4773e5453db2e7ea70569415803"
    }
  }
}