{
  "contractName": "MyToken",
  "abi": [
    {
      "inputs": [],
      "stateMutability": "nonpayable",
      "type": "constructor"
    },
    {
      "anonymous": false,
      "inputs": [
        {
          "indexed": true,
          "internalType": "address",
          "name": "account",
          "type": "address"
        },
        {
          "indexed": true,
          "internalType": "address",
          "name": "operator",
          "type": "address"
        },
        {
          "indexed": false,
          "internalType": "bool",
          "name": "approved",
          "type": "bool"
        }
      ],
      "name": "ApprovalForAll",
      "type": "event"
    },
    {
      "anonymous": false,
      "inputs": [
        {
          "indexed": true,
          "internalType": "address",
          "name": "previousOwner",
          "type": "address"
        },
        {
          "indexed": true,
          "internalType": "address",
          "name": "newOwner",
          "type": "address"
        }
      ],
      "name": "OwnershipTransferred",
      "type": "event"
    },
    {
      "anonymous": false,
      "inputs": [
        {
          "indexed": true,
          "internalType": "address",
          "name": "operator",
          "type": "address"
        },
        {
          "indexed": true,
          "internalType": "address",
          "name": "from",
          "type": "address"
        },
        {
          "indexed": true,
          "internalType": "address",
          "name": "to",
          "type": "address"
        },
        {
          "indexed": false,
          "internalType": "uint256[]",
          "name": "ids",
          "type": "uint256[]"
        },
        {
          "indexed": false,
          "internalType": "uint256[]",
          "name": "values",
          "type": "uint256[]"
        }
      ],
      "name": "TransferBatch",
      "type": "event"
    },
    {
      "anonymous": false,
      "inputs": [
        {
          "indexed": true,
          "internalType": "address",
          "name": "operator",
          "type": "address"
        },
        {
          "indexed": true,
          "internalType": "address",
          "name": "from",
          "type": "address"
        },
        {
          "indexed": true,
          "internalType": "address",
          "name": "to",
          "type": "address"
        },
        {
          "indexed": false,
          "internalType": "uint256",
          "name": "id",
          "type": "uint256"
        },
        {
          "indexed": false,
          "internalType": "uint256",
          "name": "value",
          "type": "uint256"
        }
      ],
      "name": "TransferSingle",
      "type": "event"
    },
    {
      "anonymous": false,
      "inputs": [
        {
          "indexed": false,
          "internalType": "string",
          "name": "value",
          "type": "string"
        },
        {
          "indexed": true,
          "internalType": "uint256",
          "name": "id",
          "type": "uint256"
        }
      ],
      "name": "URI",
      "type": "event"
    },
    {
      "inputs": [
        {
          "internalType": "address",
          "name": "account",
          "type": "address"
        },
        {
          "internalType": "uint256",
          "name": "id",
          "type": "uint256"
        }
      ],
      "name": "balanceOf",
      "outputs": [
        {
          "internalType": "uint256",
          "name": "",
          "type": "uint256"
        }
      ],
      "stateMutability": "view",
      "type": "function",
      "constant": true
    },
    {
      "inputs": [
        {
          "internalType": "address[]",
          "name": "accounts",
          "type": "address[]"
        },
        {
          "internalType": "uint256[]",
          "name": "ids",
          "type": "uint256[]"
        }
      ],
      "name": "balanceOfBatch",
      "outputs": [
        {
          "internalType": "uint256[]",
          "name": "",
          "type": "uint256[]"
        }
      ],
      "stateMutability": "view",
      "type": "function",
      "constant": true
    },
    {
      "inputs": [
        {
          "internalType": "address",
          "name": "account",
          "type": "address"
        },
        {
          "internalType": "address",
          "name": "operator",
          "type": "address"
        }
      ],
      "name": "isApprovedForAll",
      "outputs": [
        {
          "internalType": "bool",
          "name": "",
          "type": "bool"
        }
      ],
      "stateMutability": "view",
      "type": "function",
      "constant": true
    },
    {
      "inputs": [],
      "name": "owner",
      "outputs": [
        {
          "internalType": "address",
          "name": "",
          "type": "address"
        }
      ],
      "stateMutability": "view",
      "type": "function",
      "constant": true
    },
    {
      "inputs": [],
      "name": "renounceOwnership",
      "outputs": [],
      "stateMutability": "nonpayable",
      "type": "function"
    },
    {
      "inputs": [
        {
          "internalType": "address",
          "name": "from",
          "type": "address"
        },
        {
          "internalType": "address",
          "name": "to",
          "type": "address"
        },
        {
          "internalType": "uint256[]",
          "name": "ids",
          "type": "uint256[]"
        },
        {
          "internalType": "uint256[]",
          "name": "amounts",
          "type": "uint256[]"
        },
        {
          "internalType": "bytes",
          "name": "data",
          "type": "bytes"
        }
      ],
      "name": "safeBatchTransferFrom",
      "outputs": [],
      "stateMutability": "nonpayable",
      "type": "function"
    },
    {
      "inputs": [
        {
          "internalType": "address",
          "name": "from",
          "type": "address"
        },
        {
          "internalType": "address",
          "name": "to",
          "type": "address"
        },
        {
          "internalType": "uint256",
          "name": "id",
          "type": "uint256"
        },
        {
          "internalType": "uint256",
          "name": "amount",
          "type": "uint256"
        },
        {
          "internalType": "bytes",
          "name": "data",
          "type": "bytes"
        }
      ],
      "name": "safeTransferFrom",
      "outputs": [],
      "stateMutability": "nonpayable",
      "type": "function"
    },
    {
      "inputs": [
        {
          "internalType": "address",
          "name": "operator",
          "type": "address"
        },
        {
          "internalType": "bool",
          "name": "approved",
          "type": "bool"
        }
      ],
      "name": "setApprovalForAll",
      "outputs": [],
      "stateMutability": "nonpayable",
      "type": "function"
    },
    {
      "inputs": [
        {
          "internalType": "bytes4",
          "name": "interfaceId",
          "type": "bytes4"
        }
      ],
      "name": "supportsInterface",
      "outputs": [
        {
          "internalType": "bool",
          "name": "",
          "type": "bool"
        }
      ],
      "stateMutability": "view",
      "type": "function",
      "constant": true
    },
    {
      "inputs": [
        {
          "internalType": "address",
          "name": "newOwner",
          "type": "address"
        }
      ],
      "name": "transferOwnership",
      "outputs": [],
      "stateMutability": "nonpayable",
      "type": "function"
    },
    {
      "inputs": [
        {
          "internalType": "uint256",
          "name": "",
          "type": "uint256"
        }
      ],
      "name": "uri",
      "outputs": [
        {
          "internalType": "string",
          "name": "",
          "type": "string"
        }
      ],
      "stateMutability": "view",
      "type": "function",
      "constant": true
    },
    {
      "inputs": [
        {
          "internalType": "string",
          "name": "newuri",
          "type": "string"
        }
      ],
      "name": "setURI",
      "outputs": [],
      "stateMutability": "nonpayable",
      "type": "function"
    },
    {
      "inputs": [
        {
          "internalType": "uint256",
          "name": "_price",
          "type": "uint256"
        }
      ],
      "name": "setPrice",
      "outputs": [],
      "stateMutability": "nonpayable",
      "type": "function"
    },
    {
      "inputs": [
        {
          "internalType": "uint256",
          "name": "id",
          "type": "uint256"
        },
        {
          "internalType": "uint256",
          "name": "amount",
          "type": "uint256"
        }
      ],
      "name": "mint",
      "outputs": [],
      "stateMutability": "payable",
      "type": "function",
      "payable": true
    },
    {
      "inputs": [
        {
          "internalType": "address",
          "name": "to",
          "type": "address"
        },
        {
          "internalType": "uint256[]",
          "name": "ids",
          "type": "uint256[]"
        },
        {
          "internalType": "uint256[]",
          "name": "amounts",
          "type": "uint256[]"
        },
        {
          "internalType": "bytes",
          "name": "data",
          "type": "bytes"
        }
      ],
      "name": "mintBatch",
      "outputs": [],
      "stateMutability": "nonpayable",
      "type": "function"
    },
    {
      "inputs": [],
      "name": "withdraw",
      "outputs": [],
      "stateMutability": "nonpayable",
      "type": "function"
    },
    {
      "inputs": [],
      "name": "hello",
      "outputs": [
        {
          "internalType": "string",
          "name": "",
          "type": "string"
        }
      ],
      "stateMutability": "pure",
      "type": "function",
      "constant": true
    }
  ],
  "bytecode": "0x608060405267016345785d8a00006004553480156200001d57600080fd5b50604051806020016040528060008152506200003f816200006660201b60201c565b5062000060620000546200008260201b60201c565b6200008a60201b60201c565b62000265565b80600290805190602001906200007e92919062000150565b5050565b600033905090565b6000600360009054906101000a900473ffffffffffffffffffffffffffffffffffffffff16905081600360006101000a81548173ffffffffffffffffffffffffffffffffffffffff021916908373ffffffffffffffffffffffffffffffffffffffff1602179055508173ffffffffffffffffffffffffffffffffffffffff168173ffffffffffffffffffffffffffffffffffffffff167f8be0079c531659141344cd1fd0a4f28419497f9722a3daafe3b4186f6b6457e060405160405180910390a35050565b8280546200015e9062000200565b90600052602060002090601f016020900481019282620001825760008555620001ce565b82601f106200019d57805160ff1916838001178555620001ce565b82800160010185558215620001ce579182015b82811115620001cd578251825591602001919060010190620001b0565b5b509050620001dd9190620001e1565b5090565b5b80821115620001fc576000816000905550600101620001e2565b5090565b600060028204905060018216806200021957607f821691505b6020821081141562000230576200022f62000236565b5b50919050565b7f4e487b7100000000000000000000000000000000000000000000000000000000600052602260045260246000fd5b61382a80620002756000396000f3fe6080604052600436106100fd5760003560e01c80633ccfd60b1161009557806391b7f5ed1161006457806391b7f5ed14610311578063a22cb4651461033a578063e985e9c514610363578063f242432a146103a0578063f2fde38b146103c9576100fd565b80633ccfd60b1461027b5780634e1273f414610292578063715018a6146102cf5780638da5cb5b146102e6576100fd565b806319ff1d21116100d157806319ff1d21146101e25780631b2ef1ca1461020d5780631f7fdffa146102295780632eb2c2d614610252576100fd565b8062fdd58e1461010257806301ffc9a71461013f57806302fe53051461017c5780630e89341c146101a5575b600080fd5b34801561010e57600080fd5b50610129600480360381019061012491906125f6565b6103f2565b6040516101369190612e52565b60405180910390f35b34801561014b57600080fd5b506101666004803603810190610161919061269e565b6104bb565b6040516101739190612c35565b60405180910390f35b34801561018857600080fd5b506101a3600480360381019061019e91906126f0565b61059d565b005b3480156101b157600080fd5b506101cc60048036038101906101c79190612731565b610625565b6040516101d99190612c50565b60405180910390f35b3480156101ee57600080fd5b506101f76106b9565b6040516102049190612c50565b60405180910390f35b6102276004803603810190610222919061275a565b6106f6565b005b34801561023557600080fd5b50610250600480360381019061024b919061250f565b610731565b005b34801561025e57600080fd5b50610279600480360381019061027491906123c1565b6107bf565b005b34801561028757600080fd5b50610290610860565b005b34801561029e57600080fd5b506102b960048036038101906102b49190612632565b6109d8565b6040516102c69190612bdc565b60405180910390f35b3480156102db57600080fd5b506102e4610b89565b005b3480156102f257600080fd5b506102fb610c11565b6040516103089190612aff565b60405180910390f35b34801561031d57600080fd5b5061033860048036038101906103339190612731565b610c3b565b005b34801561034657600080fd5b50610361600480360381019061035c91906125ba565b610cc1565b005b34801561036f57600080fd5b5061038a60048036038101906103859190612385565b610cd7565b6040516103979190612c35565b60405180910390f35b3480156103ac57600080fd5b506103c760048036038101906103c29190612480565b610d6b565b005b3480156103d557600080fd5b506103f060048036038101906103eb919061235c565b610e0c565b005b60008073ffffffffffffffffffffffffffffffffffffffff168373ffffffffffffffffffffffffffffffffffffffff161415610463576040517f08c379a000000000000000000000000000000000000000000000000000000000815260040161045a90612cb2565b60405180910390fd5b60008083815260200190815260200160002060008473ffffffffffffffffffffffffffffffffffffffff1673ffffffffffffffffffffffffffffffffffffffff16815260200190815260200160002054905092915050565b60007fd9b67a26000000000000000000000000000000000000000000000000000000007bffffffffffffffffffffffffffffffffffffffffffffffffffffffff1916827bffffffffffffffffffffffffffffffffffffffffffffffffffffffff1916148061058657507f0e89341c000000000000000000000000000000000000000000000000000000007bffffffffffffffffffffffffffffffffffffffffffffffffffffffff1916827bffffffffffffffffffffffffffffffffffffffffffffffffffffffff1916145b80610596575061059582610f04565b5b9050919050565b6105a5610f6e565b73ffffffffffffffffffffffffffffffffffffffff166105c3610c11565b73ffffffffffffffffffffffffffffffffffffffff1614610619576040517f08c379a000000000000000000000000000000000000000000000000000000000815260040161061090612db2565b60405180910390fd5b61062281610f76565b50565b60606002805461063490613157565b80601f016020809104026020016040519081016040528092919081815260200182805461066090613157565b80156106ad5780601f10610682576101008083540402835291602001916106ad565b820191906000526020600020905b81548152906001019060200180831161069057829003601f168201915b50505050509050919050565b60606040518060400160405280600b81526020017f68656c6c6f20776f726c64000000000000000000000000000000000000000000815250905090565b80600454816107059190613047565b34101561071157600080fd5b61072c33848460405180602001604052806000815250610f90565b505050565b610739610f6e565b73ffffffffffffffffffffffffffffffffffffffff16610757610c11565b73ffffffffffffffffffffffffffffffffffffffff16146107ad576040517f08c379a00000000000000000000000000000000000000000000000000000000081526004016107a490612db2565b60405180910390fd5b6107b984848484611126565b50505050565b6107c7610f6e565b73ffffffffffffffffffffffffffffffffffffffff168573ffffffffffffffffffffffffffffffffffffffff16148061080d575061080c85610807610f6e565b610cd7565b5b61084c576040517f08c379a000000000000000000000000000000000000000000000000000000000815260040161084390612d52565b60405180910390fd5b6108598585858585611390565b5050505050565b610868610f6e565b73ffffffffffffffffffffffffffffffffffffffff16610886610c11565b73ffffffffffffffffffffffffffffffffffffffff16146108dc576040517f08c379a00000000000000000000000000000000000000000000000000000000081526004016108d390612db2565b60405180910390fd5b6000471161091f576040517f08c379a000000000000000000000000000000000000000000000000000000000815260040161091690612d92565b60405180910390fd5b60008061092a610c11565b73ffffffffffffffffffffffffffffffffffffffff164760405161094d90612aea565b60006040518083038185875af1925050503d806000811461098a576040519150601f19603f3d011682016040523d82523d6000602084013e61098f565b606091505b5091509150816109d4576040517f08c379a00000000000000000000000000000000000000000000000000000000081526004016109cb90612d12565b60405180910390fd5b5050565b60608151835114610a1e576040517f08c379a0000000000000000000000000000000000000000000000000000000008152600401610a1590612df2565b60405180910390fd5b6000835167ffffffffffffffff811115610a61577f4e487b7100000000000000000000000000000000000000000000000000000000600052604160045260246000fd5b604051908082528060200260200182016040528015610a8f5781602001602082028036833780820191505090505b50905060005b8451811015610b7e57610b28858281518110610ada577f4e487b7100000000000000000000000000000000000000000000000000000000600052603260045260246000fd5b6020026020010151858381518110610b1b577f4e487b7100000000000000000000000000000000000000000000000000000000600052603260045260246000fd5b60200260200101516103f2565b828281518110610b61577f4e487b7100000000000000000000000000000000000000000000000000000000600052603260045260246000fd5b60200260200101818152505080610b77906131ba565b9050610a95565b508091505092915050565b610b91610f6e565b73ffffffffffffffffffffffffffffffffffffffff16610baf610c11565b73ffffffffffffffffffffffffffffffffffffffff1614610c05576040517f08c379a0000000000000000000000000000000000000000000000000000000008152600401610bfc90612db2565b60405180910390fd5b610c0f60006116f0565b565b6000600360009054906101000a900473ffffffffffffffffffffffffffffffffffffffff16905090565b610c43610f6e565b73ffffffffffffffffffffffffffffffffffffffff16610c61610c11565b73ffffffffffffffffffffffffffffffffffffffff1614610cb7576040517f08c379a0000000000000000000000000000000000000000000000000000000008152600401610cae90612db2565b60405180910390fd5b8060048190555050565b610cd3610ccc610f6e565b83836117b6565b5050565b6000600160008473ffffffffffffffffffffffffffffffffffffffff1673ffffffffffffffffffffffffffffffffffffffff16815260200190815260200160002060008373ffffffffffffffffffffffffffffffffffffffff1673ffffffffffffffffffffffffffffffffffffffff16815260200190815260200160002060009054906101000a900460ff16905092915050565b610d73610f6e565b73ffffffffffffffffffffffffffffffffffffffff168573ffffffffffffffffffffffffffffffffffffffff161480610db95750610db885610db3610f6e565b610cd7565b5b610df8576040517f08c379a0000000000000000000000000000000000000000000000000000000008152600401610def90612cf2565b60405180910390fd5b610e058585858585611923565b5050505050565b610e14610f6e565b73ffffffffffffffffffffffffffffffffffffffff16610e32610c11565b73ffffffffffffffffffffffffffffffffffffffff1614610e88576040517f08c379a0000000000000000000000000000000000000000000000000000000008152600401610e7f90612db2565b60405180910390fd5b600073ffffffffffffffffffffffffffffffffffffffff168173ffffffffffffffffffffffffffffffffffffffff161415610ef8576040517f08c379a0000000000000000000000000000000000000000000000000000000008152600401610eef90612cd2565b60405180910390fd5b610f01816116f0565b50565b60007f01ffc9a7000000000000000000000000000000000000000000000000000000007bffffffffffffffffffffffffffffffffffffffffffffffffffffffff1916827bffffffffffffffffffffffffffffffffffffffffffffffffffffffff1916149050919050565b600033905090565b8060029080519060200190610f8c929190612054565b5050565b600073ffffffffffffffffffffffffffffffffffffffff168473ffffffffffffffffffffffffffffffffffffffff161415611000576040517f08c379a0000000000000000000000000000000000000000000000000000000008152600401610ff790612e32565b60405180910390fd5b600061100a610f6e565b905061102b8160008761101c88611ba5565b61102588611ba5565b87611c6b565b8260008086815260200190815260200160002060008773ffffffffffffffffffffffffffffffffffffffff1673ffffffffffffffffffffffffffffffffffffffff168152602001908152602001600020600082825461108a9190612ff1565b925050819055508473ffffffffffffffffffffffffffffffffffffffff16600073ffffffffffffffffffffffffffffffffffffffff168273ffffffffffffffffffffffffffffffffffffffff167fc3d58168c5ae7397731d063d5bbf3d657854427343f4c083240f7aacaa2d0f628787604051611108929190612e6d565b60405180910390a461111f81600087878787611c73565b5050505050565b600073ffffffffffffffffffffffffffffffffffffffff168473ffffffffffffffffffffffffffffffffffffffff161415611196576040517f08c379a000000000000000000000000000000000000000000000000000000000815260040161118d90612e32565b60405180910390fd5b81518351146111da576040517f08c379a00000000000000000000000000000000000000000000000000000000081526004016111d190612e12565b60405180910390fd5b60006111e4610f6e565b90506111f581600087878787611c6b565b60005b84518110156112fa5783818151811061123a577f4e487b7100000000000000000000000000000000000000000000000000000000600052603260045260246000fd5b602002602001015160008087848151811061127e577f4e487b7100000000000000000000000000000000000000000000000000000000600052603260045260246000fd5b6020026020010151815260200190815260200160002060008873ffffffffffffffffffffffffffffffffffffffff1673ffffffffffffffffffffffffffffffffffffffff16815260200190815260200160002060008282546112e09190612ff1565b9250508190555080806112f2906131ba565b9150506111f8565b508473ffffffffffffffffffffffffffffffffffffffff16600073ffffffffffffffffffffffffffffffffffffffff168273ffffffffffffffffffffffffffffffffffffffff167f4a39dc06d4c0dbc64b70af90fd698a233a518aa5d07e595d983b8c0526c8f7fb8787604051611372929190612bfe565b60405180910390a461138981600087878787611e5a565b5050505050565b81518351146113d4576040517f08c379a00000000000000000000000000000000000000000000000000000000081526004016113cb90612e12565b60405180910390fd5b600073ffffffffffffffffffffffffffffffffffffffff168473ffffffffffffffffffffffffffffffffffffffff161415611444576040517f08c379a000000000000000000000000000000000000000000000000000000000815260040161143b90612d32565b60405180910390fd5b600061144e610f6e565b905061145e818787878787611c6b565b60005b845181101561165b5760008582815181106114a5577f4e487b7100000000000000000000000000000000000000000000000000000000600052603260045260246000fd5b6020026020010151905060008583815181106114ea577f4e487b7100000000000000000000000000000000000000000000000000000000600052603260045260246000fd5b60200260200101519050600080600084815260200190815260200160002060008b73ffffffffffffffffffffffffffffffffffffffff1673ffffffffffffffffffffffffffffffffffffffff1681526020019081526020016000205490508181101561158b576040517f08c379a000000000000000000000000000000000000000000000000000000000815260040161158290612d72565b60405180910390fd5b81810360008085815260200190815260200160002060008c73ffffffffffffffffffffffffffffffffffffffff1673ffffffffffffffffffffffffffffffffffffffff168152602001908152602001600020819055508160008085815260200190815260200160002060008b73ffffffffffffffffffffffffffffffffffffffff1673ffffffffffffffffffffffffffffffffffffffff16815260200190815260200160002060008282546116409190612ff1565b9250508190555050505080611654906131ba565b9050611461565b508473ffffffffffffffffffffffffffffffffffffffff168673ffffffffffffffffffffffffffffffffffffffff168273ffffffffffffffffffffffffffffffffffffffff167f4a39dc06d4c0dbc64b70af90fd698a233a518aa5d07e595d983b8c0526c8f7fb87876040516116d2929190612bfe565b60405180910390a46116e8818787878787611e5a565b505050505050565b6000600360009054906101000a900473ffffffffffffffffffffffffffffffffffffffff16905081600360006101000a81548173ffffffffffffffffffffffffffffffffffffffff021916908373ffffffffffffffffffffffffffffffffffffffff1602179055508173ffffffffffffffffffffffffffffffffffffffff168173ffffffffffffffffffffffffffffffffffffffff167f8be0079c531659141344cd1fd0a4f28419497f9722a3daafe3b4186f6b6457e060405160405180910390a35050565b8173ffffffffffffffffffffffffffffffffffffffff168373ffffffffffffffffffffffffffffffffffffffff161415611825576040517f08c379a000000000000000000000000000000000000000000000000000000000815260040161181c90612dd2565b60405180910390fd5b80600160008573ffffffffffffffffffffffffffffffffffffffff1673ffffffffffffffffffffffffffffffffffffffff16815260200190815260200160002060008473ffffffffffffffffffffffffffffffffffffffff1673ffffffffffffffffffffffffffffffffffffffff16815260200190815260200160002060006101000a81548160ff0219169083151502179055508173ffffffffffffffffffffffffffffffffffffffff168373ffffffffffffffffffffffffffffffffffffffff167f17307eab39ab6107e8899845ad3d59bd9653f200f220920489ca2b5937696c31836040516119169190612c35565b60405180910390a3505050565b600073ffffffffffffffffffffffffffffffffffffffff168473ffffffffffffffffffffffffffffffffffffffff161415611993576040517f08c379a000000000000000000000000000000000000000000000000000000000815260040161198a90612d32565b60405180910390fd5b600061199d610f6e565b90506119bd8187876119ae88611ba5565b6119b788611ba5565b87611c6b565b600080600086815260200190815260200160002060008873ffffffffffffffffffffffffffffffffffffffff1673ffffffffffffffffffffffffffffffffffffffff16815260200190815260200160002054905083811015611a54576040517f08c379a0000000000000000000000000000000000000000000000000000000008152600401611a4b90612d72565b60405180910390fd5b83810360008087815260200190815260200160002060008973ffffffffffffffffffffffffffffffffffffffff1673ffffffffffffffffffffffffffffffffffffffff168152602001908152602001600020819055508360008087815260200190815260200160002060008873ffffffffffffffffffffffffffffffffffffffff1673ffffffffffffffffffffffffffffffffffffffff1681526020019081526020016000206000828254611b099190612ff1565b925050819055508573ffffffffffffffffffffffffffffffffffffffff168773ffffffffffffffffffffffffffffffffffffffff168373ffffffffffffffffffffffffffffffffffffffff167fc3d58168c5ae7397731d063d5bbf3d657854427343f4c083240f7aacaa2d0f628888604051611b86929190612e6d565b60405180910390a4611b9c828888888888611c73565b50505050505050565b60606000600167ffffffffffffffff811115611bea577f4e487b7100000000000000000000000000000000000000000000000000000000600052604160045260246000fd5b604051908082528060200260200182016040528015611c185781602001602082028036833780820191505090505b5090508281600081518110611c56577f4e487b7100000000000000000000000000000000000000000000000000000000600052603260045260246000fd5b60200260200101818152505080915050919050565b505050505050565b611c928473ffffffffffffffffffffffffffffffffffffffff16612041565b15611e52578373ffffffffffffffffffffffffffffffffffffffff1663f23a6e6187878686866040518663ffffffff1660e01b8152600401611cd8959493929190612b82565b602060405180830381600087803b158015611cf257600080fd5b505af1925050508015611d2357506040513d601f19601f82011682018060405250810190611d2091906126c7565b60015b611dc957611d2f613290565b806308c379a01415611d8c5750611d44613702565b80611d4f5750611d8e565b806040517f08c379a0000000000000000000000000000000000000000000000000000000008152600401611d839190612c50565b60405180910390fd5b505b6040517f08c379a0000000000000000000000000000000000000000000000000000000008152600401611dc090612c72565b60405180910390fd5b63f23a6e6160e01b7bffffffffffffffffffffffffffffffffffffffffffffffffffffffff1916817bffffffffffffffffffffffffffffffffffffffffffffffffffffffff191614611e50576040517f08c379a0000000000000000000000000000000000000000000000000000000008152600401611e4790612c92565b60405180910390fd5b505b505050505050565b611e798473ffffffffffffffffffffffffffffffffffffffff16612041565b15612039578373ffffffffffffffffffffffffffffffffffffffff1663bc197c8187878686866040518663ffffffff1660e01b8152600401611ebf959493929190612b1a565b602060405180830381600087803b158015611ed957600080fd5b505af1925050508015611f0a57506040513d601f19601f82011682018060405250810190611f0791906126c7565b60015b611fb057611f16613290565b806308c379a01415611f735750611f2b613702565b80611f365750611f75565b806040517f08c379a0000000000000000000000000000000000000000000000000000000008152600401611f6a9190612c50565b60405180910390fd5b505b6040517f08c379a0000000000000000000000000000000000000000000000000000000008152600401611fa790612c72565b60405180910390fd5b63bc197c8160e01b7bffffffffffffffffffffffffffffffffffffffffffffffffffffffff1916817bffffffffffffffffffffffffffffffffffffffffffffffffffffffff191614612037576040517f08c379a000000000000000000000000000000000000000000000000000000000815260040161202e90612c92565b60405180910390fd5b505b505050505050565b600080823b905060008111915050919050565b82805461206090613157565b90600052602060002090601f01602090048101928261208257600085556120c9565b82601f1061209b57805160ff19168380011785556120c9565b828001600101855582156120c9579182015b828111156120c85782518255916020019190600101906120ad565b5b5090506120d691906120da565b5090565b5b808211156120f35760008160009055506001016120db565b5090565b600061210a61210584612ebb565b612e96565b9050808382526020820190508285602086028201111561212957600080fd5b60005b85811015612159578161213f888261224b565b84526020840193506020830192505060018101905061212c565b5050509392505050565b600061217661217184612ee7565b612e96565b9050808382526020820190508285602086028201111561219557600080fd5b60005b858110156121c557816121ab8882612347565b845260208401935060208301925050600181019050612198565b5050509392505050565b60006121e26121dd84612f13565b612e96565b9050828152602081018484840111156121fa57600080fd5b612205848285613115565b509392505050565b600061222061221b84612f44565b612e96565b90508281526020810184848401111561223857600080fd5b612243848285613115565b509392505050565b60008135905061225a81613798565b92915050565b600082601f83011261227157600080fd5b81356122818482602086016120f7565b91505092915050565b600082601f83011261229b57600080fd5b81356122ab848260208601612163565b91505092915050565b6000813590506122c3816137af565b92915050565b6000813590506122d8816137c6565b92915050565b6000815190506122ed816137c6565b92915050565b600082601f83011261230457600080fd5b81356123148482602086016121cf565b91505092915050565b600082601f83011261232e57600080fd5b813561233e84826020860161220d565b91505092915050565b600081359050612356816137dd565b92915050565b60006020828403121561236e57600080fd5b600061237c8482850161224b565b91505092915050565b6000806040838503121561239857600080fd5b60006123a68582860161224b565b92505060206123b78582860161224b565b9150509250929050565b600080600080600060a086880312156123d957600080fd5b60006123e78882890161224b565b95505060206123f88882890161224b565b945050604086013567ffffffffffffffff81111561241557600080fd5b6124218882890161228a565b935050606086013567ffffffffffffffff81111561243e57600080fd5b61244a8882890161228a565b925050608086013567ffffffffffffffff81111561246757600080fd5b612473888289016122f3565b9150509295509295909350565b600080600080600060a0868803121561249857600080fd5b60006124a68882890161224b565b95505060206124b78882890161224b565b94505060406124c888828901612347565b93505060606124d988828901612347565b925050608086013567ffffffffffffffff8111156124f657600080fd5b612502888289016122f3565b9150509295509295909350565b6000806000806080858703121561252557600080fd5b60006125338782880161224b565b945050602085013567ffffffffffffffff81111561255057600080fd5b61255c8782880161228a565b935050604085013567ffffffffffffffff81111561257957600080fd5b6125858782880161228a565b925050606085013567ffffffffffffffff8111156125a257600080fd5b6125ae878288016122f3565b91505092959194509250565b600080604083850312156125cd57600080fd5b60006125db8582860161224b565b92505060206125ec858286016122b4565b9150509250929050565b6000806040838503121561260957600080fd5b60006126178582860161224b565b925050602061262885828601612347565b9150509250929050565b6000806040838503121561264557600080fd5b600083013567ffffffffffffffff81111561265f57600080fd5b61266b85828601612260565b925050602083013567ffffffffffffffff81111561268857600080fd5b6126948582860161228a565b9150509250929050565b6000602082840312156126b057600080fd5b60006126be848285016122c9565b91505092915050565b6000602082840312156126d957600080fd5b60006126e7848285016122de565b91505092915050565b60006020828403121561270257600080fd5b600082013567ffffffffffffffff81111561271c57600080fd5b6127288482850161231d565b91505092915050565b60006020828403121561274357600080fd5b600061275184828501612347565b91505092915050565b6000806040838503121561276d57600080fd5b600061277b85828601612347565b925050602061278c85828601612347565b9150509250929050565b60006127a28383612acc565b60208301905092915050565b6127b7816130a1565b82525050565b60006127c882612f85565b6127d28185612fb3565b93506127dd83612f75565b8060005b8381101561280e5781516127f58882612796565b975061280083612fa6565b9250506001810190506127e1565b5085935050505092915050565b612824816130b3565b82525050565b600061283582612f90565b61283f8185612fc4565b935061284f818560208601613124565b612858816132b2565b840191505092915050565b600061286e82612f9b565b6128788185612fe0565b9350612888818560208601613124565b612891816132b2565b840191505092915050565b60006128a9603483612fe0565b91506128b4826132d0565b604082019050919050565b60006128cc602883612fe0565b91506128d78261331f565b604082019050919050565b60006128ef602b83612fe0565b91506128fa8261336e565b604082019050919050565b6000612912602683612fe0565b915061291d826133bd565b604082019050919050565b6000612935602983612fe0565b91506129408261340c565b604082019050919050565b6000612958601483612fe0565b91506129638261345b565b602082019050919050565b600061297b602583612fe0565b915061298682613484565b604082019050919050565b600061299e603283612fe0565b91506129a9826134d3565b604082019050919050565b60006129c1602a83612fe0565b91506129cc82613522565b604082019050919050565b60006129e4600c83612fe0565b91506129ef82613571565b602082019050919050565b6000612a07602083612fe0565b9150612a128261359a565b602082019050919050565b6000612a2a600083612fd5565b9150612a35826135c3565b600082019050919050565b6000612a4d602983612fe0565b9150612a58826135c6565b604082019050919050565b6000612a70602983612fe0565b9150612a7b82613615565b604082019050919050565b6000612a93602883612fe0565b9150612a9e82613664565b604082019050919050565b6000612ab6602183612fe0565b9150612ac1826136b3565b604082019050919050565b612ad58161310b565b82525050565b612ae48161310b565b82525050565b6000612af582612a1d565b9150819050919050565b6000602082019050612b1460008301846127ae565b92915050565b600060a082019050612b2f60008301886127ae565b612b3c60208301876127ae565b8181036040830152612b4e81866127bd565b90508181036060830152612b6281856127bd565b90508181036080830152612b76818461282a565b90509695505050505050565b600060a082019050612b9760008301886127ae565b612ba460208301876127ae565b612bb16040830186612adb565b612bbe6060830185612adb565b8181036080830152612bd0818461282a565b90509695505050505050565b60006020820190508181036000830152612bf681846127bd565b905092915050565b60006040820190508181036000830152612c1881856127bd565b90508181036020830152612c2c81846127bd565b90509392505050565b6000602082019050612c4a600083018461281b565b92915050565b60006020820190508181036000830152612c6a8184612863565b905092915050565b60006020820190508181036000830152612c8b8161289c565b9050919050565b60006020820190508181036000830152612cab816128bf565b9050919050565b60006020820190508181036000830152612ccb816128e2565b9050919050565b60006020820190508181036000830152612ceb81612905565b9050919050565b60006020820190508181036000830152612d0b81612928565b9050919050565b60006020820190508181036000830152612d2b8161294b565b9050919050565b60006020820190508181036000830152612d4b8161296e565b9050919050565b60006020820190508181036000830152612d6b81612991565b9050919050565b60006020820190508181036000830152612d8b816129b4565b9050919050565b60006020820190508181036000830152612dab816129d7565b9050919050565b60006020820190508181036000830152612dcb816129fa565b9050919050565b60006020820190508181036000830152612deb81612a40565b9050919050565b60006020820190508181036000830152612e0b81612a63565b9050919050565b60006020820190508181036000830152612e2b81612a86565b9050919050565b60006020820190508181036000830152612e4b81612aa9565b9050919050565b6000602082019050612e676000830184612adb565b92915050565b6000604082019050612e826000830185612adb565b612e8f6020830184612adb565b9392505050565b6000612ea0612eb1565b9050612eac8282613189565b919050565b6000604051905090565b600067ffffffffffffffff821115612ed657612ed5613261565b5b602082029050602081019050919050565b600067ffffffffffffffff821115612f0257612f01613261565b5b602082029050602081019050919050565b600067ffffffffffffffff821115612f2e57612f2d613261565b5b612f37826132b2565b9050602081019050919050565b600067ffffffffffffffff821115612f5f57612f5e613261565b5b612f68826132b2565b9050602081019050919050565b6000819050602082019050919050565b600081519050919050565b600081519050919050565b600081519050919050565b6000602082019050919050565b600082825260208201905092915050565b600082825260208201905092915050565b600081905092915050565b600082825260208201905092915050565b6000612ffc8261310b565b91506130078361310b565b9250827fffffffffffffffffffffffffffffffffffffffffffffffffffffffffffffffff0382111561303c5761303b613203565b5b828201905092915050565b60006130528261310b565b915061305d8361310b565b9250817fffffffffffffffffffffffffffffffffffffffffffffffffffffffffffffffff048311821515161561309657613095613203565b5b828202905092915050565b60006130ac826130eb565b9050919050565b60008115159050919050565b60007fffffffff0000000000000000000000000000000000000000000000000000000082169050919050565b600073ffffffffffffffffffffffffffffffffffffffff82169050919050565b6000819050919050565b82818337600083830152505050565b60005b83811015613142578082015181840152602081019050613127565b83811115613151576000848401525b50505050565b6000600282049050600182168061316f57607f821691505b6020821081141561318357613182613232565b5b50919050565b613192826132b2565b810181811067ffffffffffffffff821117156131b1576131b0613261565b5b80604052505050565b60006131c58261310b565b91507fffffffffffffffffffffffffffffffffffffffffffffffffffffffffffffffff8214156131f8576131f7613203565b5b600182019050919050565b7f4e487b7100000000000000000000000000000000000000000000000000000000600052601160045260246000fd5b7f4e487b7100000000000000000000000000000000000000000000000000000000600052602260045260246000fd5b7f4e487b7100000000000000000000000000000000000000000000000000000000600052604160045260246000fd5b600060033d11156132af5760046000803e6132ac6000516132c3565b90505b90565b6000601f19601f8301169050919050565b60008160e01c9050919050565b7f455243313135353a207472616e7366657220746f206e6f6e204552433131353560008201527f526563656976657220696d706c656d656e746572000000000000000000000000602082015250565b7f455243313135353a204552433131353552656365697665722072656a6563746560008201527f6420746f6b656e73000000000000000000000000000000000000000000000000602082015250565b7f455243313135353a2062616c616e636520717565727920666f7220746865207a60008201527f65726f2061646472657373000000000000000000000000000000000000000000602082015250565b7f4f776e61626c653a206e6577206f776e657220697320746865207a65726f206160008201527f6464726573730000000000000000000000000000000000000000000000000000602082015250565b7f455243313135353a2063616c6c6572206973206e6f74206f776e6572206e6f7260008201527f20617070726f7665640000000000000000000000000000000000000000000000602082015250565b7f4661696c656420746f2073656e64204574686572000000000000000000000000600082015250565b7f455243313135353a207472616e7366657220746f20746865207a65726f20616460008201527f6472657373000000000000000000000000000000000000000000000000000000602082015250565b7f455243313135353a207472616e736665722063616c6c6572206973206e6f742060008201527f6f776e6572206e6f7220617070726f7665640000000000000000000000000000602082015250565b7f455243313135353a20696e73756666696369656e742062616c616e636520666f60008201527f72207472616e7366657200000000000000000000000000000000000000000000602082015250565b7f42616c616e636520697320300000000000000000000000000000000000000000600082015250565b7f4f776e61626c653a2063616c6c6572206973206e6f7420746865206f776e6572600082015250565b50565b7f455243313135353a2073657474696e6720617070726f76616c2073746174757360008201527f20666f722073656c660000000000000000000000000000000000000000000000602082015250565b7f455243313135353a206163636f756e747320616e6420696473206c656e67746860008201527f206d69736d617463680000000000000000000000000000000000000000000000602082015250565b7f455243313135353a2069647320616e6420616d6f756e7473206c656e6774682060008201527f6d69736d61746368000000000000000000000000000000000000000000000000602082015250565b7f455243313135353a206d696e7420746f20746865207a65726f2061646472657360008201527f7300000000000000000000000000000000000000000000000000000000000000602082015250565b600060443d101561371257613795565b61371a612eb1565b60043d036004823e80513d602482011167ffffffffffffffff82111715613742575050613795565b808201805167ffffffffffffffff8111156137605750505050613795565b80602083010160043d03850181111561377d575050505050613795565b61378c82602001850186613189565b82955050505050505b90565b6137a1816130a1565b81146137ac57600080fd5b50565b6137b8816130b3565b81146137c357600080fd5b50565b6137cf816130bf565b81146137da57600080fd5b50565b6137e68161310b565b81146137f157600080fd5b5056fea2646970667358221220013d75c557e4658337844704a2842e1a303bb1aede05a9c72c7d1f44f740d04c64736f6c63430008020033",
  "immutableReferences": {},
  "source": "// SPDX-License-Identifier: MIT\npragma solidity ^0.8.2;\n\nimport \"@openzeppelin/contracts/token/ERC1155/ERC1155.sol\";\nimport \"@openzeppelin/contracts/access/Ownable.sol\";\n\ncontract MyToken is ERC1155, Ownable {\n    uint price = 0.1 ether;\n\n    constructor() ERC1155(\"\") {}\n\n    modifier verifyAmount(uint amount) {\n        require (msg.value >= amount * price);\n        _;\n    }\n\n    function setURI(string memory newuri) public onlyOwner {\n        _setURI(newuri);\n    }\n\n    function setPrice(uint _price) public onlyOwner {\n        price = _price;\n    }\n\n    function mint(uint256 id, uint256 amount)\n        public\n        payable verifyAmount(amount)\n    {\n        _mint(msg.sender, id, amount, \"\");\n    }\n\n    function mintBatch(address to, uint256[] memory ids, uint256[] memory amounts, bytes memory data)\n        public\n        onlyOwner\n    {\n        _mintBatch(to, ids, amounts, data);\n    }\n\n    function withdraw() external onlyOwner {\n        require(address(this).balance > 0, \"Balance is 0\");\n        (bool sent, bytes memory data) = owner().call{value: address(this).balance}(\"\");\n        require(sent, \"Failed to send Ether\");\n    }\n\n    function hello() public pure returns(string memory) {\n        return \"hello world\";\n    }\n}\n\n// Mumbai Polygon address: 0xaeCc8F00CB9f370e1D0BA8f4D8417F31c554A692\n",
  "sourcePath": "/home/scookie/github/NFTHackST/contracts/ethereum/MyToken.sol",
  "compiler": {
    "name": "solc",
    "version": "0.8.2+commit.661d1103.Emscripten.clang"
  },
  "schemaVersion": "3.4.3",
  "updatedAt": "2022-01-15T18:38:22.214Z",
  "networkType": "ethereum",
  "devdoc": {
    "kind": "dev",
    "methods": {
      "balanceOf(address,uint256)": {
        "details": "See {IERC1155-balanceOf}. Requirements: - `account` cannot be the zero address."
      },
      "balanceOfBatch(address[],uint256[])": {
        "details": "See {IERC1155-balanceOfBatch}. Requirements: - `accounts` and `ids` must have the same length."
      },
      "isApprovedForAll(address,address)": {
        "details": "See {IERC1155-isApprovedForAll}."
      },
      "owner()": {
        "details": "Returns the address of the current owner."
      },
      "renounceOwnership()": {
        "details": "Leaves the contract without owner. It will not be possible to call `onlyOwner` functions anymore. Can only be called by the current owner. NOTE: Renouncing ownership will leave the contract without an owner, thereby removing any functionality that is only available to the owner."
      },
      "safeBatchTransferFrom(address,address,uint256[],uint256[],bytes)": {
        "details": "See {IERC1155-safeBatchTransferFrom}."
      },
      "safeTransferFrom(address,address,uint256,uint256,bytes)": {
        "details": "See {IERC1155-safeTransferFrom}."
      },
      "setApprovalForAll(address,bool)": {
        "details": "See {IERC1155-setApprovalForAll}."
      },
      "supportsInterface(bytes4)": {
        "details": "See {IERC165-supportsInterface}."
      },
      "transferOwnership(address)": {
        "details": "Transfers ownership of the contract to a new account (`newOwner`). Can only be called by the current owner."
      },
      "uri(uint256)": {
        "details": "See {IERC1155MetadataURI-uri}. This implementation returns the same URI for *all* token types. It relies on the token type ID substitution mechanism https://eips.ethereum.org/EIPS/eip-1155#metadata[defined in the EIP]. Clients calling this function must replace the `\\{id\\}` substring with the actual token type ID."
      }
    },
    "version": 1
  },
  "userdoc": {
    "kind": "user",
    "methods": {},
    "version": 1
  }
}