{
  "contractName": "MyToken",
  "abi": [
    {
      "inputs": [],
      "stateMutability": "nonpayable",
      "type": "constructor"
    },
    {
      "anonymous": false,
      "inputs": [
        {
          "indexed": true,
          "internalType": "address",
          "name": "account",
          "type": "address"
        },
        {
          "indexed": true,
          "internalType": "address",
          "name": "operator",
          "type": "address"
        },
        {
          "indexed": false,
          "internalType": "bool",
          "name": "approved",
          "type": "bool"
        }
      ],
      "name": "ApprovalForAll",
      "type": "event"
    },
    {
      "anonymous": false,
      "inputs": [
        {
          "indexed": true,
          "internalType": "address",
          "name": "previousOwner",
          "type": "address"
        },
        {
          "indexed": true,
          "internalType": "address",
          "name": "newOwner",
          "type": "address"
        }
      ],
      "name": "OwnershipTransferred",
      "type": "event"
    },
    {
      "anonymous": false,
      "inputs": [
        {
          "indexed": true,
          "internalType": "address",
          "name": "operator",
          "type": "address"
        },
        {
          "indexed": true,
          "internalType": "address",
          "name": "from",
          "type": "address"
        },
        {
          "indexed": true,
          "internalType": "address",
          "name": "to",
          "type": "address"
        },
        {
          "indexed": false,
          "internalType": "uint256[]",
          "name": "ids",
          "type": "uint256[]"
        },
        {
          "indexed": false,
          "internalType": "uint256[]",
          "name": "values",
          "type": "uint256[]"
        }
      ],
      "name": "TransferBatch",
      "type": "event"
    },
    {
      "anonymous": false,
      "inputs": [
        {
          "indexed": true,
          "internalType": "address",
          "name": "operator",
          "type": "address"
        },
        {
          "indexed": true,
          "internalType": "address",
          "name": "from",
          "type": "address"
        },
        {
          "indexed": true,
          "internalType": "address",
          "name": "to",
          "type": "address"
        },
        {
          "indexed": false,
          "internalType": "uint256",
          "name": "id",
          "type": "uint256"
        },
        {
          "indexed": false,
          "internalType": "uint256",
          "name": "value",
          "type": "uint256"
        }
      ],
      "name": "TransferSingle",
      "type": "event"
    },
    {
      "anonymous": false,
      "inputs": [
        {
          "indexed": false,
          "internalType": "string",
          "name": "value",
          "type": "string"
        },
        {
          "indexed": true,
          "internalType": "uint256",
          "name": "id",
          "type": "uint256"
        }
      ],
      "name": "URI",
      "type": "event"
    },
    {
      "inputs": [
        {
          "internalType": "address",
          "name": "account",
          "type": "address"
        },
        {
          "internalType": "uint256",
          "name": "id",
          "type": "uint256"
        }
      ],
      "name": "balanceOf",
      "outputs": [
        {
          "internalType": "uint256",
          "name": "",
          "type": "uint256"
        }
      ],
      "stateMutability": "view",
      "type": "function",
      "constant": true
    },
    {
      "inputs": [
        {
          "internalType": "address[]",
          "name": "accounts",
          "type": "address[]"
        },
        {
          "internalType": "uint256[]",
          "name": "ids",
          "type": "uint256[]"
        }
      ],
      "name": "balanceOfBatch",
      "outputs": [
        {
          "internalType": "uint256[]",
          "name": "",
          "type": "uint256[]"
        }
      ],
      "stateMutability": "view",
      "type": "function",
      "constant": true
    },
    {
      "inputs": [
        {
          "internalType": "address",
          "name": "account",
          "type": "address"
        },
        {
          "internalType": "address",
          "name": "operator",
          "type": "address"
        }
      ],
      "name": "isApprovedForAll",
      "outputs": [
        {
          "internalType": "bool",
          "name": "",
          "type": "bool"
        }
      ],
      "stateMutability": "view",
      "type": "function",
      "constant": true
    },
    {
      "inputs": [],
      "name": "owner",
      "outputs": [
        {
          "internalType": "address",
          "name": "",
          "type": "address"
        }
      ],
      "stateMutability": "view",
      "type": "function",
      "constant": true
    },
    {
      "inputs": [],
      "name": "renounceOwnership",
      "outputs": [],
      "stateMutability": "nonpayable",
      "type": "function"
    },
    {
      "inputs": [
        {
          "internalType": "address",
          "name": "from",
          "type": "address"
        },
        {
          "internalType": "address",
          "name": "to",
          "type": "address"
        },
        {
          "internalType": "uint256[]",
          "name": "ids",
          "type": "uint256[]"
        },
        {
          "internalType": "uint256[]",
          "name": "amounts",
          "type": "uint256[]"
        },
        {
          "internalType": "bytes",
          "name": "data",
          "type": "bytes"
        }
      ],
      "name": "safeBatchTransferFrom",
      "outputs": [],
      "stateMutability": "nonpayable",
      "type": "function"
    },
    {
      "inputs": [
        {
          "internalType": "address",
          "name": "from",
          "type": "address"
        },
        {
          "internalType": "address",
          "name": "to",
          "type": "address"
        },
        {
          "internalType": "uint256",
          "name": "id",
          "type": "uint256"
        },
        {
          "internalType": "uint256",
          "name": "amount",
          "type": "uint256"
        },
        {
          "internalType": "bytes",
          "name": "data",
          "type": "bytes"
        }
      ],
      "name": "safeTransferFrom",
      "outputs": [],
      "stateMutability": "nonpayable",
      "type": "function"
    },
    {
      "inputs": [
        {
          "internalType": "address",
          "name": "operator",
          "type": "address"
        },
        {
          "internalType": "bool",
          "name": "approved",
          "type": "bool"
        }
      ],
      "name": "setApprovalForAll",
      "outputs": [],
      "stateMutability": "nonpayable",
      "type": "function"
    },
    {
      "inputs": [
        {
          "internalType": "bytes4",
          "name": "interfaceId",
          "type": "bytes4"
        }
      ],
      "name": "supportsInterface",
      "outputs": [
        {
          "internalType": "bool",
          "name": "",
          "type": "bool"
        }
      ],
      "stateMutability": "view",
      "type": "function",
      "constant": true
    },
    {
      "inputs": [
        {
          "internalType": "address",
          "name": "newOwner",
          "type": "address"
        }
      ],
      "name": "transferOwnership",
      "outputs": [],
      "stateMutability": "nonpayable",
      "type": "function"
    },
    {
      "inputs": [
        {
          "internalType": "uint256",
          "name": "",
          "type": "uint256"
        }
      ],
      "name": "uri",
      "outputs": [
        {
          "internalType": "string",
          "name": "",
          "type": "string"
        }
      ],
      "stateMutability": "view",
      "type": "function",
      "constant": true
    },
    {
      "inputs": [
        {
          "internalType": "string",
          "name": "newuri",
          "type": "string"
        }
      ],
      "name": "setURI",
      "outputs": [],
      "stateMutability": "nonpayable",
      "type": "function"
    },
    {
      "inputs": [
        {
          "internalType": "uint256",
          "name": "_price",
          "type": "uint256"
        }
      ],
      "name": "setPrice",
      "outputs": [],
      "stateMutability": "nonpayable",
      "type": "function"
    },
    {
      "inputs": [
        {
          "internalType": "uint256",
          "name": "id",
          "type": "uint256"
        },
        {
          "internalType": "uint256",
          "name": "amount",
          "type": "uint256"
        }
      ],
      "name": "mint",
      "outputs": [],
      "stateMutability": "payable",
      "type": "function",
      "payable": true
    },
    {
      "inputs": [
        {
          "internalType": "address",
          "name": "to",
          "type": "address"
        },
        {
          "internalType": "uint256[]",
          "name": "ids",
          "type": "uint256[]"
        },
        {
          "internalType": "uint256[]",
          "name": "amounts",
          "type": "uint256[]"
        },
        {
          "internalType": "bytes",
          "name": "data",
          "type": "bytes"
        }
      ],
      "name": "mintBatch",
      "outputs": [],
      "stateMutability": "nonpayable",
      "type": "function"
    },
    {
      "inputs": [],
      "name": "withdraw",
      "outputs": [],
      "stateMutability": "nonpayable",
      "type": "function"
    },
    {
      "inputs": [],
      "name": "hello",
      "outputs": [
        {
          "internalType": "string",
          "name": "",
          "type": "string"
        }
      ],
      "stateMutability": "pure",
      "type": "function",
      "constant": true
    }
  ],
  "bytecode": "0x608060405267016345785d8a00006004553480156200001d57600080fd5b506040518060800160405280605a8152602001620045b0605a913962000049816200010460201b60201c565b506200006a6200005e6200012060201b60201c565b6200012860201b60201c565b6200008f336000600160405180602001604052806000815250620001ee60201b60201c565b620000b4336001606460405180602001604052806000815250620001ee60201b60201c565b620000d9336002603260405180602001604052806000815250620001ee60201b60201c565b620000fe336003601960405180602001604052806000815250620001ee60201b60201c565b62000dec565b80600290805190602001906200011c929190620006a1565b5050565b600033905090565b6000600360009054906101000a900473ffffffffffffffffffffffffffffffffffffffff16905081600360006101000a81548173ffffffffffffffffffffffffffffffffffffffff021916908373ffffffffffffffffffffffffffffffffffffffff1602179055508173ffffffffffffffffffffffffffffffffffffffff168173ffffffffffffffffffffffffffffffffffffffff167f8be0079c531659141344cd1fd0a4f28419497f9722a3daafe3b4186f6b6457e060405160405180910390a35050565b600073ffffffffffffffffffffffffffffffffffffffff168473ffffffffffffffffffffffffffffffffffffffff16141562000261576040517f08c379a0000000000000000000000000000000000000000000000000000000008152600401620002589062000979565b60405180910390fd5b6000620002736200012060201b60201c565b9050620002ac816000876200028e88620003b360201b60201c565b6200029f88620003b360201b60201c565b876200047c60201b60201c565b8260008086815260200190815260200160002060008773ffffffffffffffffffffffffffffffffffffffff1673ffffffffffffffffffffffffffffffffffffffff16815260200190815260200160002060008282546200030d919062000a0a565b925050819055508473ffffffffffffffffffffffffffffffffffffffff16600073ffffffffffffffffffffffffffffffffffffffff168273ffffffffffffffffffffffffffffffffffffffff167fc3d58168c5ae7397731d063d5bbf3d657854427343f4c083240f7aacaa2d0f6287876040516200038d9291906200099b565b60405180910390a4620003ac816000878787876200048460201b60201c565b5050505050565b60606000600167ffffffffffffffff811115620003f9577f4e487b7100000000000000000000000000000000000000000000000000000000600052604160045260246000fd5b604051908082528060200260200182016040528015620004285781602001602082028036833780820191505090505b509050828160008151811062000467577f4e487b7100000000000000000000000000000000000000000000000000000000600052603260045260246000fd5b60200260200101818152505080915050919050565b505050505050565b620004b08473ffffffffffffffffffffffffffffffffffffffff166200068e60201b62000ee81760201c565b1562000686578373ffffffffffffffffffffffffffffffffffffffff1663f23a6e6187878686866040518663ffffffff1660e01b8152600401620004f9959493929190620008ad565b602060405180830381600087803b1580156200051457600080fd5b505af19250505080156200054857506040513d601f19601f8201168201806040525081019062000545919062000768565b60015b620005fa576200055762000c00565b806308c379a01415620005bb57506200056f62000d30565b806200057c5750620005bd565b806040517f08c379a0000000000000000000000000000000000000000000000000000000008152600401620005b2919062000911565b60405180910390fd5b505b6040517f08c379a0000000000000000000000000000000000000000000000000000000008152600401620005f19062000935565b60405180910390fd5b63f23a6e6160e01b7bffffffffffffffffffffffffffffffffffffffffffffffffffffffff1916817bffffffffffffffffffffffffffffffffffffffffffffffffffffffff19161462000684576040517f08c379a00000000000000000000000000000000000000000000000000000000081526004016200067b9062000957565b60405180910390fd5b505b505050505050565b600080823b905060008111915050919050565b828054620006af9062000b07565b90600052602060002090601f016020900481019282620006d357600085556200071f565b82601f10620006ee57805160ff19168380011785556200071f565b828001600101855582156200071f579182015b828111156200071e57825182559160200191906001019062000701565b5b5090506200072e919062000732565b5090565b5b808211156200074d57600081600090555060010162000733565b5090565b600081519050620007628162000dd2565b92915050565b6000602082840312156200077b57600080fd5b60006200078b8482850162000751565b91505092915050565b6200079f8162000a67565b82525050565b6000620007b282620009d2565b620007be8185620009e8565b9350620007d081856020860162000ad1565b620007db8162000c25565b840191505092915050565b6000620007f382620009dd565b620007ff8185620009f9565b93506200081181856020860162000ad1565b6200081c8162000c25565b840191505092915050565b600062000836603483620009f9565b9150620008438262000c43565b604082019050919050565b60006200085d602883620009f9565b91506200086a8262000c92565b604082019050919050565b600062000884602183620009f9565b9150620008918262000ce1565b604082019050919050565b620008a78162000ac7565b82525050565b600060a082019050620008c4600083018862000794565b620008d3602083018762000794565b620008e260408301866200089c565b620008f160608301856200089c565b8181036080830152620009058184620007a5565b90509695505050505050565b600060208201905081810360008301526200092d8184620007e6565b905092915050565b60006020820190508181036000830152620009508162000827565b9050919050565b6000602082019050818103600083015262000972816200084e565b9050919050565b60006020820190508181036000830152620009948162000875565b9050919050565b6000604082019050620009b260008301856200089c565b620009c160208301846200089c565b9392505050565b6000604051905090565b600081519050919050565b600081519050919050565b600082825260208201905092915050565b600082825260208201905092915050565b600062000a178262000ac7565b915062000a248362000ac7565b9250827fffffffffffffffffffffffffffffffffffffffffffffffffffffffffffffffff0382111562000a5c5762000a5b62000b73565b5b828201905092915050565b600062000a748262000aa7565b9050919050565b60007fffffffff0000000000000000000000000000000000000000000000000000000082169050919050565b600073ffffffffffffffffffffffffffffffffffffffff82169050919050565b6000819050919050565b60005b8381101562000af157808201518184015260208101905062000ad4565b8381111562000b01576000848401525b50505050565b6000600282049050600182168062000b2057607f821691505b6020821081141562000b375762000b3662000ba2565b5b50919050565b62000b488262000c25565b810181811067ffffffffffffffff8211171562000b6a5762000b6962000bd1565b5b80604052505050565b7f4e487b7100000000000000000000000000000000000000000000000000000000600052601160045260246000fd5b7f4e487b7100000000000000000000000000000000000000000000000000000000600052602260045260246000fd5b7f4e487b7100000000000000000000000000000000000000000000000000000000600052604160045260246000fd5b600060033d111562000c225760046000803e62000c1f60005162000c36565b90505b90565b6000601f19601f8301169050919050565b60008160e01c9050919050565b7f455243313135353a207472616e7366657220746f206e6f6e204552433131353560008201527f526563656976657220696d706c656d656e746572000000000000000000000000602082015250565b7f455243313135353a204552433131353552656365697665722072656a6563746560008201527f6420746f6b656e73000000000000000000000000000000000000000000000000602082015250565b7f455243313135353a206d696e7420746f20746865207a65726f2061646472657360008201527f7300000000000000000000000000000000000000000000000000000000000000602082015250565b600060443d101562000d425762000dcf565b62000d4c620009c8565b60043d036004823e80513d602482011167ffffffffffffffff8211171562000d7657505062000dcf565b808201805167ffffffffffffffff81111562000d96575050505062000dcf565b80602083010160043d03850181111562000db557505050505062000dcf565b62000dc68260200185018662000b3d565b82955050505050505b90565b62000ddd8162000a7b565b811462000de957600080fd5b50565b6137b48062000dfc6000396000f3fe6080604052600436106100fd5760003560e01c80633ccfd60b1161009557806391b7f5ed1161006457806391b7f5ed14610311578063a22cb4651461033a578063e985e9c514610363578063f242432a146103a0578063f2fde38b146103c9576100fd565b80633ccfd60b1461027b5780634e1273f414610292578063715018a6146102cf5780638da5cb5b146102e6576100fd565b806319ff1d21116100d157806319ff1d21146101e25780631b2ef1ca1461020d5780631f7fdffa146102295780632eb2c2d614610252576100fd565b8062fdd58e1461010257806301ffc9a71461013f57806302fe53051461017c5780630e89341c146101a5575b600080fd5b34801561010e57600080fd5b50610129600480360381019061012491906125da565b6103f2565b6040516101369190612e36565b60405180910390f35b34801561014b57600080fd5b5061016660048036038101906101619190612682565b6104bb565b6040516101739190612c19565b60405180910390f35b34801561018857600080fd5b506101a3600480360381019061019e91906126d4565b61059d565b005b3480156101b157600080fd5b506101cc60048036038101906101c79190612715565b610625565b6040516101d99190612c34565b60405180910390f35b3480156101ee57600080fd5b506101f76106b9565b6040516102049190612c34565b60405180910390f35b6102276004803603810190610222919061273e565b6106f6565b005b34801561023557600080fd5b50610250600480360381019061024b91906124f3565b610715565b005b34801561025e57600080fd5b50610279600480360381019061027491906123a5565b6107a3565b005b34801561028757600080fd5b50610290610844565b005b34801561029e57600080fd5b506102b960048036038101906102b49190612616565b6109bc565b6040516102c69190612bc0565b60405180910390f35b3480156102db57600080fd5b506102e4610b6d565b005b3480156102f257600080fd5b506102fb610bf5565b6040516103089190612ae3565b60405180910390f35b34801561031d57600080fd5b5061033860048036038101906103339190612715565b610c1f565b005b34801561034657600080fd5b50610361600480360381019061035c919061259e565b610ca5565b005b34801561036f57600080fd5b5061038a60048036038101906103859190612369565b610cbb565b6040516103979190612c19565b60405180910390f35b3480156103ac57600080fd5b506103c760048036038101906103c29190612464565b610d4f565b005b3480156103d557600080fd5b506103f060048036038101906103eb9190612340565b610df0565b005b60008073ffffffffffffffffffffffffffffffffffffffff168373ffffffffffffffffffffffffffffffffffffffff161415610463576040517f08c379a000000000000000000000000000000000000000000000000000000000815260040161045a90612c96565b60405180910390fd5b60008083815260200190815260200160002060008473ffffffffffffffffffffffffffffffffffffffff1673ffffffffffffffffffffffffffffffffffffffff16815260200190815260200160002054905092915050565b60007fd9b67a26000000000000000000000000000000000000000000000000000000007bffffffffffffffffffffffffffffffffffffffffffffffffffffffff1916827bffffffffffffffffffffffffffffffffffffffffffffffffffffffff1916148061058657507f0e89341c000000000000000000000000000000000000000000000000000000007bffffffffffffffffffffffffffffffffffffffffffffffffffffffff1916827bffffffffffffffffffffffffffffffffffffffffffffffffffffffff1916145b80610596575061059582610efb565b5b9050919050565b6105a5610f65565b73ffffffffffffffffffffffffffffffffffffffff166105c3610bf5565b73ffffffffffffffffffffffffffffffffffffffff1614610619576040517f08c379a000000000000000000000000000000000000000000000000000000000815260040161061090612d96565b60405180910390fd5b61062281610f6d565b50565b606060028054610634906130e1565b80601f0160208091040260200160405190810160405280929190818152602001828054610660906130e1565b80156106ad5780601f10610682576101008083540402835291602001916106ad565b820191906000526020600020905b81548152906001019060200180831161069057829003601f168201915b50505050509050919050565b60606040518060400160405280600b81526020017f68656c6c6f20776f726c64000000000000000000000000000000000000000000815250905090565b61071133838360405180602001604052806000815250610f87565b5050565b61071d610f65565b73ffffffffffffffffffffffffffffffffffffffff1661073b610bf5565b73ffffffffffffffffffffffffffffffffffffffff1614610791576040517f08c379a000000000000000000000000000000000000000000000000000000000815260040161078890612d96565b60405180910390fd5b61079d8484848461111d565b50505050565b6107ab610f65565b73ffffffffffffffffffffffffffffffffffffffff168573ffffffffffffffffffffffffffffffffffffffff1614806107f157506107f0856107eb610f65565b610cbb565b5b610830576040517f08c379a000000000000000000000000000000000000000000000000000000000815260040161082790612d36565b60405180910390fd5b61083d8585858585611387565b5050505050565b61084c610f65565b73ffffffffffffffffffffffffffffffffffffffff1661086a610bf5565b73ffffffffffffffffffffffffffffffffffffffff16146108c0576040517f08c379a00000000000000000000000000000000000000000000000000000000081526004016108b790612d96565b60405180910390fd5b60004711610903576040517f08c379a00000000000000000000000000000000000000000000000000000000081526004016108fa90612d76565b60405180910390fd5b60008061090e610bf5565b73ffffffffffffffffffffffffffffffffffffffff164760405161093190612ace565b60006040518083038185875af1925050503d806000811461096e576040519150601f19603f3d011682016040523d82523d6000602084013e610973565b606091505b5091509150816109b8576040517f08c379a00000000000000000000000000000000000000000000000000000000081526004016109af90612cf6565b60405180910390fd5b5050565b60608151835114610a02576040517f08c379a00000000000000000000000000000000000000000000000000000000081526004016109f990612dd6565b60405180910390fd5b6000835167ffffffffffffffff811115610a45577f4e487b7100000000000000000000000000000000000000000000000000000000600052604160045260246000fd5b604051908082528060200260200182016040528015610a735781602001602082028036833780820191505090505b50905060005b8451811015610b6257610b0c858281518110610abe577f4e487b7100000000000000000000000000000000000000000000000000000000600052603260045260246000fd5b6020026020010151858381518110610aff577f4e487b7100000000000000000000000000000000000000000000000000000000600052603260045260246000fd5b60200260200101516103f2565b828281518110610b45577f4e487b7100000000000000000000000000000000000000000000000000000000600052603260045260246000fd5b60200260200101818152505080610b5b90613144565b9050610a79565b508091505092915050565b610b75610f65565b73ffffffffffffffffffffffffffffffffffffffff16610b93610bf5565b73ffffffffffffffffffffffffffffffffffffffff1614610be9576040517f08c379a0000000000000000000000000000000000000000000000000000000008152600401610be090612d96565b60405180910390fd5b610bf360006116e7565b565b6000600360009054906101000a900473ffffffffffffffffffffffffffffffffffffffff16905090565b610c27610f65565b73ffffffffffffffffffffffffffffffffffffffff16610c45610bf5565b73ffffffffffffffffffffffffffffffffffffffff1614610c9b576040517f08c379a0000000000000000000000000000000000000000000000000000000008152600401610c9290612d96565b60405180910390fd5b8060048190555050565b610cb7610cb0610f65565b83836117ad565b5050565b6000600160008473ffffffffffffffffffffffffffffffffffffffff1673ffffffffffffffffffffffffffffffffffffffff16815260200190815260200160002060008373ffffffffffffffffffffffffffffffffffffffff1673ffffffffffffffffffffffffffffffffffffffff16815260200190815260200160002060009054906101000a900460ff16905092915050565b610d57610f65565b73ffffffffffffffffffffffffffffffffffffffff168573ffffffffffffffffffffffffffffffffffffffff161480610d9d5750610d9c85610d97610f65565b610cbb565b5b610ddc576040517f08c379a0000000000000000000000000000000000000000000000000000000008152600401610dd390612cd6565b60405180910390fd5b610de9858585858561191a565b5050505050565b610df8610f65565b73ffffffffffffffffffffffffffffffffffffffff16610e16610bf5565b73ffffffffffffffffffffffffffffffffffffffff1614610e6c576040517f08c379a0000000000000000000000000000000000000000000000000000000008152600401610e6390612d96565b60405180910390fd5b600073ffffffffffffffffffffffffffffffffffffffff168173ffffffffffffffffffffffffffffffffffffffff161415610edc576040517f08c379a0000000000000000000000000000000000000000000000000000000008152600401610ed390612cb6565b60405180910390fd5b610ee5816116e7565b50565b600080823b905060008111915050919050565b60007f01ffc9a7000000000000000000000000000000000000000000000000000000007bffffffffffffffffffffffffffffffffffffffffffffffffffffffff1916827bffffffffffffffffffffffffffffffffffffffffffffffffffffffff1916149050919050565b600033905090565b8060029080519060200190610f83929190612038565b5050565b600073ffffffffffffffffffffffffffffffffffffffff168473ffffffffffffffffffffffffffffffffffffffff161415610ff7576040517f08c379a0000000000000000000000000000000000000000000000000000000008152600401610fee90612e16565b60405180910390fd5b6000611001610f65565b90506110228160008761101388611b9c565b61101c88611b9c565b87611c62565b8260008086815260200190815260200160002060008773ffffffffffffffffffffffffffffffffffffffff1673ffffffffffffffffffffffffffffffffffffffff16815260200190815260200160002060008282546110819190612fd5565b925050819055508473ffffffffffffffffffffffffffffffffffffffff16600073ffffffffffffffffffffffffffffffffffffffff168273ffffffffffffffffffffffffffffffffffffffff167fc3d58168c5ae7397731d063d5bbf3d657854427343f4c083240f7aacaa2d0f6287876040516110ff929190612e51565b60405180910390a461111681600087878787611c6a565b5050505050565b600073ffffffffffffffffffffffffffffffffffffffff168473ffffffffffffffffffffffffffffffffffffffff16141561118d576040517f08c379a000000000000000000000000000000000000000000000000000000000815260040161118490612e16565b60405180910390fd5b81518351146111d1576040517f08c379a00000000000000000000000000000000000000000000000000000000081526004016111c890612df6565b60405180910390fd5b60006111db610f65565b90506111ec81600087878787611c62565b60005b84518110156112f157838181518110611231577f4e487b7100000000000000000000000000000000000000000000000000000000600052603260045260246000fd5b6020026020010151600080878481518110611275577f4e487b7100000000000000000000000000000000000000000000000000000000600052603260045260246000fd5b6020026020010151815260200190815260200160002060008873ffffffffffffffffffffffffffffffffffffffff1673ffffffffffffffffffffffffffffffffffffffff16815260200190815260200160002060008282546112d79190612fd5565b9250508190555080806112e990613144565b9150506111ef565b508473ffffffffffffffffffffffffffffffffffffffff16600073ffffffffffffffffffffffffffffffffffffffff168273ffffffffffffffffffffffffffffffffffffffff167f4a39dc06d4c0dbc64b70af90fd698a233a518aa5d07e595d983b8c0526c8f7fb8787604051611369929190612be2565b60405180910390a461138081600087878787611e51565b5050505050565b81518351146113cb576040517f08c379a00000000000000000000000000000000000000000000000000000000081526004016113c290612df6565b60405180910390fd5b600073ffffffffffffffffffffffffffffffffffffffff168473ffffffffffffffffffffffffffffffffffffffff16141561143b576040517f08c379a000000000000000000000000000000000000000000000000000000000815260040161143290612d16565b60405180910390fd5b6000611445610f65565b9050611455818787878787611c62565b60005b845181101561165257600085828151811061149c577f4e487b7100000000000000000000000000000000000000000000000000000000600052603260045260246000fd5b6020026020010151905060008583815181106114e1577f4e487b7100000000000000000000000000000000000000000000000000000000600052603260045260246000fd5b60200260200101519050600080600084815260200190815260200160002060008b73ffffffffffffffffffffffffffffffffffffffff1673ffffffffffffffffffffffffffffffffffffffff16815260200190815260200160002054905081811015611582576040517f08c379a000000000000000000000000000000000000000000000000000000000815260040161157990612d56565b60405180910390fd5b81810360008085815260200190815260200160002060008c73ffffffffffffffffffffffffffffffffffffffff1673ffffffffffffffffffffffffffffffffffffffff168152602001908152602001600020819055508160008085815260200190815260200160002060008b73ffffffffffffffffffffffffffffffffffffffff1673ffffffffffffffffffffffffffffffffffffffff16815260200190815260200160002060008282546116379190612fd5565b925050819055505050508061164b90613144565b9050611458565b508473ffffffffffffffffffffffffffffffffffffffff168673ffffffffffffffffffffffffffffffffffffffff168273ffffffffffffffffffffffffffffffffffffffff167f4a39dc06d4c0dbc64b70af90fd698a233a518aa5d07e595d983b8c0526c8f7fb87876040516116c9929190612be2565b60405180910390a46116df818787878787611e51565b505050505050565b6000600360009054906101000a900473ffffffffffffffffffffffffffffffffffffffff16905081600360006101000a81548173ffffffffffffffffffffffffffffffffffffffff021916908373ffffffffffffffffffffffffffffffffffffffff1602179055508173ffffffffffffffffffffffffffffffffffffffff168173ffffffffffffffffffffffffffffffffffffffff167f8be0079c531659141344cd1fd0a4f28419497f9722a3daafe3b4186f6b6457e060405160405180910390a35050565b8173ffffffffffffffffffffffffffffffffffffffff168373ffffffffffffffffffffffffffffffffffffffff16141561181c576040517f08c379a000000000000000000000000000000000000000000000000000000000815260040161181390612db6565b60405180910390fd5b80600160008573ffffffffffffffffffffffffffffffffffffffff1673ffffffffffffffffffffffffffffffffffffffff16815260200190815260200160002060008473ffffffffffffffffffffffffffffffffffffffff1673ffffffffffffffffffffffffffffffffffffffff16815260200190815260200160002060006101000a81548160ff0219169083151502179055508173ffffffffffffffffffffffffffffffffffffffff168373ffffffffffffffffffffffffffffffffffffffff167f17307eab39ab6107e8899845ad3d59bd9653f200f220920489ca2b5937696c318360405161190d9190612c19565b60405180910390a3505050565b600073ffffffffffffffffffffffffffffffffffffffff168473ffffffffffffffffffffffffffffffffffffffff16141561198a576040517f08c379a000000000000000000000000000000000000000000000000000000000815260040161198190612d16565b60405180910390fd5b6000611994610f65565b90506119b48187876119a588611b9c565b6119ae88611b9c565b87611c62565b600080600086815260200190815260200160002060008873ffffffffffffffffffffffffffffffffffffffff1673ffffffffffffffffffffffffffffffffffffffff16815260200190815260200160002054905083811015611a4b576040517f08c379a0000000000000000000000000000000000000000000000000000000008152600401611a4290612d56565b60405180910390fd5b83810360008087815260200190815260200160002060008973ffffffffffffffffffffffffffffffffffffffff1673ffffffffffffffffffffffffffffffffffffffff168152602001908152602001600020819055508360008087815260200190815260200160002060008873ffffffffffffffffffffffffffffffffffffffff1673ffffffffffffffffffffffffffffffffffffffff1681526020019081526020016000206000828254611b009190612fd5565b925050819055508573ffffffffffffffffffffffffffffffffffffffff168773ffffffffffffffffffffffffffffffffffffffff168373ffffffffffffffffffffffffffffffffffffffff167fc3d58168c5ae7397731d063d5bbf3d657854427343f4c083240f7aacaa2d0f628888604051611b7d929190612e51565b60405180910390a4611b93828888888888611c6a565b50505050505050565b60606000600167ffffffffffffffff811115611be1577f4e487b7100000000000000000000000000000000000000000000000000000000600052604160045260246000fd5b604051908082528060200260200182016040528015611c0f5781602001602082028036833780820191505090505b5090508281600081518110611c4d577f4e487b7100000000000000000000000000000000000000000000000000000000600052603260045260246000fd5b60200260200101818152505080915050919050565b505050505050565b611c898473ffffffffffffffffffffffffffffffffffffffff16610ee8565b15611e49578373ffffffffffffffffffffffffffffffffffffffff1663f23a6e6187878686866040518663ffffffff1660e01b8152600401611ccf959493929190612b66565b602060405180830381600087803b158015611ce957600080fd5b505af1925050508015611d1a57506040513d601f19601f82011682018060405250810190611d1791906126ab565b60015b611dc057611d2661321a565b806308c379a01415611d835750611d3b61368c565b80611d465750611d85565b806040517f08c379a0000000000000000000000000000000000000000000000000000000008152600401611d7a9190612c34565b60405180910390fd5b505b6040517f08c379a0000000000000000000000000000000000000000000000000000000008152600401611db790612c56565b60405180910390fd5b63f23a6e6160e01b7bffffffffffffffffffffffffffffffffffffffffffffffffffffffff1916817bffffffffffffffffffffffffffffffffffffffffffffffffffffffff191614611e47576040517f08c379a0000000000000000000000000000000000000000000000000000000008152600401611e3e90612c76565b60405180910390fd5b505b505050505050565b611e708473ffffffffffffffffffffffffffffffffffffffff16610ee8565b15612030578373ffffffffffffffffffffffffffffffffffffffff1663bc197c8187878686866040518663ffffffff1660e01b8152600401611eb6959493929190612afe565b602060405180830381600087803b158015611ed057600080fd5b505af1925050508015611f0157506040513d601f19601f82011682018060405250810190611efe91906126ab565b60015b611fa757611f0d61321a565b806308c379a01415611f6a5750611f2261368c565b80611f2d5750611f6c565b806040517f08c379a0000000000000000000000000000000000000000000000000000000008152600401611f619190612c34565b60405180910390fd5b505b6040517f08c379a0000000000000000000000000000000000000000000000000000000008152600401611f9e90612c56565b60405180910390fd5b63bc197c8160e01b7bffffffffffffffffffffffffffffffffffffffffffffffffffffffff1916817bffffffffffffffffffffffffffffffffffffffffffffffffffffffff19161461202e576040517f08c379a000000000000000000000000000000000000000000000000000000000815260040161202590612c76565b60405180910390fd5b505b505050505050565b828054612044906130e1565b90600052602060002090601f01602090048101928261206657600085556120ad565b82601f1061207f57805160ff19168380011785556120ad565b828001600101855582156120ad579182015b828111156120ac578251825591602001919060010190612091565b5b5090506120ba91906120be565b5090565b5b808211156120d75760008160009055506001016120bf565b5090565b60006120ee6120e984612e9f565b612e7a565b9050808382526020820190508285602086028201111561210d57600080fd5b60005b8581101561213d5781612123888261222f565b845260208401935060208301925050600181019050612110565b5050509392505050565b600061215a61215584612ecb565b612e7a565b9050808382526020820190508285602086028201111561217957600080fd5b60005b858110156121a9578161218f888261232b565b84526020840193506020830192505060018101905061217c565b5050509392505050565b60006121c66121c184612ef7565b612e7a565b9050828152602081018484840111156121de57600080fd5b6121e984828561309f565b509392505050565b60006122046121ff84612f28565b612e7a565b90508281526020810184848401111561221c57600080fd5b61222784828561309f565b509392505050565b60008135905061223e81613722565b92915050565b600082601f83011261225557600080fd5b81356122658482602086016120db565b91505092915050565b600082601f83011261227f57600080fd5b813561228f848260208601612147565b91505092915050565b6000813590506122a781613739565b92915050565b6000813590506122bc81613750565b92915050565b6000815190506122d181613750565b92915050565b600082601f8301126122e857600080fd5b81356122f88482602086016121b3565b91505092915050565b600082601f83011261231257600080fd5b81356123228482602086016121f1565b91505092915050565b60008135905061233a81613767565b92915050565b60006020828403121561235257600080fd5b60006123608482850161222f565b91505092915050565b6000806040838503121561237c57600080fd5b600061238a8582860161222f565b925050602061239b8582860161222f565b9150509250929050565b600080600080600060a086880312156123bd57600080fd5b60006123cb8882890161222f565b95505060206123dc8882890161222f565b945050604086013567ffffffffffffffff8111156123f957600080fd5b6124058882890161226e565b935050606086013567ffffffffffffffff81111561242257600080fd5b61242e8882890161226e565b925050608086013567ffffffffffffffff81111561244b57600080fd5b612457888289016122d7565b9150509295509295909350565b600080600080600060a0868803121561247c57600080fd5b600061248a8882890161222f565b955050602061249b8882890161222f565b94505060406124ac8882890161232b565b93505060606124bd8882890161232b565b925050608086013567ffffffffffffffff8111156124da57600080fd5b6124e6888289016122d7565b9150509295509295909350565b6000806000806080858703121561250957600080fd5b60006125178782880161222f565b945050602085013567ffffffffffffffff81111561253457600080fd5b6125408782880161226e565b935050604085013567ffffffffffffffff81111561255d57600080fd5b6125698782880161226e565b925050606085013567ffffffffffffffff81111561258657600080fd5b612592878288016122d7565b91505092959194509250565b600080604083850312156125b157600080fd5b60006125bf8582860161222f565b92505060206125d085828601612298565b9150509250929050565b600080604083850312156125ed57600080fd5b60006125fb8582860161222f565b925050602061260c8582860161232b565b9150509250929050565b6000806040838503121561262957600080fd5b600083013567ffffffffffffffff81111561264357600080fd5b61264f85828601612244565b925050602083013567ffffffffffffffff81111561266c57600080fd5b6126788582860161226e565b9150509250929050565b60006020828403121561269457600080fd5b60006126a2848285016122ad565b91505092915050565b6000602082840312156126bd57600080fd5b60006126cb848285016122c2565b91505092915050565b6000602082840312156126e657600080fd5b600082013567ffffffffffffffff81111561270057600080fd5b61270c84828501612301565b91505092915050565b60006020828403121561272757600080fd5b60006127358482850161232b565b91505092915050565b6000806040838503121561275157600080fd5b600061275f8582860161232b565b92505060206127708582860161232b565b9150509250929050565b60006127868383612ab0565b60208301905092915050565b61279b8161302b565b82525050565b60006127ac82612f69565b6127b68185612f97565b93506127c183612f59565b8060005b838110156127f25781516127d9888261277a565b97506127e483612f8a565b9250506001810190506127c5565b5085935050505092915050565b6128088161303d565b82525050565b600061281982612f74565b6128238185612fa8565b93506128338185602086016130ae565b61283c8161323c565b840191505092915050565b600061285282612f7f565b61285c8185612fc4565b935061286c8185602086016130ae565b6128758161323c565b840191505092915050565b600061288d603483612fc4565b91506128988261325a565b604082019050919050565b60006128b0602883612fc4565b91506128bb826132a9565b604082019050919050565b60006128d3602b83612fc4565b91506128de826132f8565b604082019050919050565b60006128f6602683612fc4565b915061290182613347565b604082019050919050565b6000612919602983612fc4565b915061292482613396565b604082019050919050565b600061293c601483612fc4565b9150612947826133e5565b602082019050919050565b600061295f602583612fc4565b915061296a8261340e565b604082019050919050565b6000612982603283612fc4565b915061298d8261345d565b604082019050919050565b60006129a5602a83612fc4565b91506129b0826134ac565b604082019050919050565b60006129c8600c83612fc4565b91506129d3826134fb565b602082019050919050565b60006129eb602083612fc4565b91506129f682613524565b602082019050919050565b6000612a0e600083612fb9565b9150612a198261354d565b600082019050919050565b6000612a31602983612fc4565b9150612a3c82613550565b604082019050919050565b6000612a54602983612fc4565b9150612a5f8261359f565b604082019050919050565b6000612a77602883612fc4565b9150612a82826135ee565b604082019050919050565b6000612a9a602183612fc4565b9150612aa58261363d565b604082019050919050565b612ab981613095565b82525050565b612ac881613095565b82525050565b6000612ad982612a01565b9150819050919050565b6000602082019050612af86000830184612792565b92915050565b600060a082019050612b136000830188612792565b612b206020830187612792565b8181036040830152612b3281866127a1565b90508181036060830152612b4681856127a1565b90508181036080830152612b5a818461280e565b90509695505050505050565b600060a082019050612b7b6000830188612792565b612b886020830187612792565b612b956040830186612abf565b612ba26060830185612abf565b8181036080830152612bb4818461280e565b90509695505050505050565b60006020820190508181036000830152612bda81846127a1565b905092915050565b60006040820190508181036000830152612bfc81856127a1565b90508181036020830152612c1081846127a1565b90509392505050565b6000602082019050612c2e60008301846127ff565b92915050565b60006020820190508181036000830152612c4e8184612847565b905092915050565b60006020820190508181036000830152612c6f81612880565b9050919050565b60006020820190508181036000830152612c8f816128a3565b9050919050565b60006020820190508181036000830152612caf816128c6565b9050919050565b60006020820190508181036000830152612ccf816128e9565b9050919050565b60006020820190508181036000830152612cef8161290c565b9050919050565b60006020820190508181036000830152612d0f8161292f565b9050919050565b60006020820190508181036000830152612d2f81612952565b9050919050565b60006020820190508181036000830152612d4f81612975565b9050919050565b60006020820190508181036000830152612d6f81612998565b9050919050565b60006020820190508181036000830152612d8f816129bb565b9050919050565b60006020820190508181036000830152612daf816129de565b9050919050565b60006020820190508181036000830152612dcf81612a24565b9050919050565b60006020820190508181036000830152612def81612a47565b9050919050565b60006020820190508181036000830152612e0f81612a6a565b9050919050565b60006020820190508181036000830152612e2f81612a8d565b9050919050565b6000602082019050612e4b6000830184612abf565b92915050565b6000604082019050612e666000830185612abf565b612e736020830184612abf565b9392505050565b6000612e84612e95565b9050612e908282613113565b919050565b6000604051905090565b600067ffffffffffffffff821115612eba57612eb96131eb565b5b602082029050602081019050919050565b600067ffffffffffffffff821115612ee657612ee56131eb565b5b602082029050602081019050919050565b600067ffffffffffffffff821115612f1257612f116131eb565b5b612f1b8261323c565b9050602081019050919050565b600067ffffffffffffffff821115612f4357612f426131eb565b5b612f4c8261323c565b9050602081019050919050565b6000819050602082019050919050565b600081519050919050565b600081519050919050565b600081519050919050565b6000602082019050919050565b600082825260208201905092915050565b600082825260208201905092915050565b600081905092915050565b600082825260208201905092915050565b6000612fe082613095565b9150612feb83613095565b9250827fffffffffffffffffffffffffffffffffffffffffffffffffffffffffffffffff038211156130205761301f61318d565b5b828201905092915050565b600061303682613075565b9050919050565b60008115159050919050565b60007fffffffff0000000000000000000000000000000000000000000000000000000082169050919050565b600073ffffffffffffffffffffffffffffffffffffffff82169050919050565b6000819050919050565b82818337600083830152505050565b60005b838110156130cc5780820151818401526020810190506130b1565b838111156130db576000848401525b50505050565b600060028204905060018216806130f957607f821691505b6020821081141561310d5761310c6131bc565b5b50919050565b61311c8261323c565b810181811067ffffffffffffffff8211171561313b5761313a6131eb565b5b80604052505050565b600061314f82613095565b91507fffffffffffffffffffffffffffffffffffffffffffffffffffffffffffffffff8214156131825761318161318d565b5b600182019050919050565b7f4e487b7100000000000000000000000000000000000000000000000000000000600052601160045260246000fd5b7f4e487b7100000000000000000000000000000000000000000000000000000000600052602260045260246000fd5b7f4e487b7100000000000000000000000000000000000000000000000000000000600052604160045260246000fd5b600060033d11156132395760046000803e61323660005161324d565b90505b90565b6000601f19601f8301169050919050565b60008160e01c9050919050565b7f455243313135353a207472616e7366657220746f206e6f6e204552433131353560008201527f526563656976657220696d706c656d656e746572000000000000000000000000602082015250565b7f455243313135353a204552433131353552656365697665722072656a6563746560008201527f6420746f6b656e73000000000000000000000000000000000000000000000000602082015250565b7f455243313135353a2062616c616e636520717565727920666f7220746865207a60008201527f65726f2061646472657373000000000000000000000000000000000000000000602082015250565b7f4f776e61626c653a206e6577206f776e657220697320746865207a65726f206160008201527f6464726573730000000000000000000000000000000000000000000000000000602082015250565b7f455243313135353a2063616c6c6572206973206e6f74206f776e6572206e6f7260008201527f20617070726f7665640000000000000000000000000000000000000000000000602082015250565b7f4661696c656420746f2073656e64204574686572000000000000000000000000600082015250565b7f455243313135353a207472616e7366657220746f20746865207a65726f20616460008201527f6472657373000000000000000000000000000000000000000000000000000000602082015250565b7f455243313135353a207472616e736665722063616c6c6572206973206e6f742060008201527f6f776e6572206e6f7220617070726f7665640000000000000000000000000000602082015250565b7f455243313135353a20696e73756666696369656e742062616c616e636520666f60008201527f72207472616e7366657200000000000000000000000000000000000000000000602082015250565b7f42616c616e636520697320300000000000000000000000000000000000000000600082015250565b7f4f776e61626c653a2063616c6c6572206973206e6f7420746865206f776e6572600082015250565b50565b7f455243313135353a2073657474696e6720617070726f76616c2073746174757360008201527f20666f722073656c660000000000000000000000000000000000000000000000602082015250565b7f455243313135353a206163636f756e747320616e6420696473206c656e67746860008201527f206d69736d617463680000000000000000000000000000000000000000000000602082015250565b7f455243313135353a2069647320616e6420616d6f756e7473206c656e6774682060008201527f6d69736d61746368000000000000000000000000000000000000000000000000602082015250565b7f455243313135353a206d696e7420746f20746865207a65726f2061646472657360008201527f7300000000000000000000000000000000000000000000000000000000000000602082015250565b600060443d101561369c5761371f565b6136a4612e95565b60043d036004823e80513d602482011167ffffffffffffffff821117156136cc57505061371f565b808201805167ffffffffffffffff8111156136ea575050505061371f565b80602083010160043d03850181111561370757505050505061371f565b61371682602001850186613113565b82955050505050505b90565b61372b8161302b565b811461373657600080fd5b50565b6137428161303d565b811461374d57600080fd5b50565b61375981613049565b811461376457600080fd5b50565b61377081613095565b811461377b57600080fd5b5056fea26469706673582212206c1f15da878b3b579b864a104a5e86d10b7904cc13b2b34a40da4ba7ce086a0a64736f6c6343000802003368747470733a2f2f676174657761792e70696e6174612e636c6f75642f697066732f516d57444b394d707a42545a6a73796f7a467266746b6b446a31686b5079334e4534525772333944436d3966345a2f7b69647d2e6a736f6e",
  "immutableReferences": {},
  "source": "// SPDX-License-Identifier: MIT\npragma solidity ^0.8.0;\n\nimport \"@openzeppelin/contracts/token/ERC1155/ERC1155.sol\";\nimport \"@openzeppelin/contracts/access/Ownable.sol\";\n\ncontract MyToken is ERC1155, Ownable {\n    uint price = 0.1 ether;\n    uint constant FAN = 0;\n    uint constant OKO = 1;\n    uint constant POTIONS = 2;\n    uint constant PLEX = 3;\n\n    constructor() ERC1155(\"https://gateway.pinata.cloud/ipfs/QmWDK9MpzBTZjsyozFrftkkDj1hkPy3NE4RWr39DCm9f4Z/{id}.json\") {\n        _mint(msg.sender, FAN, 1, \"\");\n        _mint(msg.sender, OKO, 100, \"\");\n        _mint(msg.sender, POTIONS, 50, \"\");\n        _mint(msg.sender, PLEX, 25, \"\");\n    }\n\n    // modifier verifyAmount(uint amount) {\n    //     require (msg.value >= amount * price);\n    //     _;\n    // }\n\n    function setURI(string memory newuri) public onlyOwner {\n        _setURI(newuri);\n    }\n\n    function setPrice(uint _price) public onlyOwner {\n        price = _price;\n    }\n    \n    function mint(uint256 id, uint256 amount)\n        public\n        payable \n    {\n        // require(msg.value == price);\n        _mint(msg.sender, id, amount, \"\");\n    }\n\n    function mintBatch(address to, uint256[] memory ids, uint256[] memory amounts, bytes memory data)\n        public\n        onlyOwner\n    {\n        _mintBatch(to, ids, amounts, data);\n    }\n\n    function withdraw() external onlyOwner {\n        require(address(this).balance > 0, \"Balance is 0\");\n        (bool sent, bytes memory data) = owner().call{value: address(this).balance}(\"\");\n        require(sent, \"Failed to send Ether\");\n    }\n\n    function hello() public pure returns(string memory) {\n        return \"hello world\";\n    }\n}\n\n// Mumbai Polygon address: 0xaeCc8F00CB9f370e1D0BA8f4D8417F31c554A692",
  "sourcePath": "/home/scookie/github/NFTHackST/contracts/ethereum/MyToken.sol",
  "compiler": {
    "name": "solc",
    "version": "0.8.2+commit.661d1103.Emscripten.clang"
  },
  "schemaVersion": "3.4.3",
  "updatedAt": "2022-01-16T15:44:23.896Z",
  "networkType": "ethereum",
  "devdoc": {
    "kind": "dev",
    "methods": {
      "balanceOf(address,uint256)": {
        "details": "See {IERC1155-balanceOf}. Requirements: - `account` cannot be the zero address."
      },
      "balanceOfBatch(address[],uint256[])": {
        "details": "See {IERC1155-balanceOfBatch}. Requirements: - `accounts` and `ids` must have the same length."
      },
      "isApprovedForAll(address,address)": {
        "details": "See {IERC1155-isApprovedForAll}."
      },
      "owner()": {
        "details": "Returns the address of the current owner."
      },
      "renounceOwnership()": {
        "details": "Leaves the contract without owner. It will not be possible to call `onlyOwner` functions anymore. Can only be called by the current owner. NOTE: Renouncing ownership will leave the contract without an owner, thereby removing any functionality that is only available to the owner."
      },
      "safeBatchTransferFrom(address,address,uint256[],uint256[],bytes)": {
        "details": "See {IERC1155-safeBatchTransferFrom}."
      },
      "safeTransferFrom(address,address,uint256,uint256,bytes)": {
        "details": "See {IERC1155-safeTransferFrom}."
      },
      "setApprovalForAll(address,bool)": {
        "details": "See {IERC1155-setApprovalForAll}."
      },
      "supportsInterface(bytes4)": {
        "details": "See {IERC165-supportsInterface}."
      },
      "transferOwnership(address)": {
        "details": "Transfers ownership of the contract to a new account (`newOwner`). Can only be called by the current owner."
      },
      "uri(uint256)": {
        "details": "See {IERC1155MetadataURI-uri}. This implementation returns the same URI for *all* token types. It relies on the token type ID substitution mechanism https://eips.ethereum.org/EIPS/eip-1155#metadata[defined in the EIP]. Clients calling this function must replace the `\\{id\\}` substring with the actual token type ID."
      }
    },
    "version": 1
  },
  "userdoc": {
    "kind": "user",
    "methods": {},
    "version": 1
  }
}